:100000000C9434000C9451000C9451000C94510049
:100010000C9451000C9451000C9451000C9451001C
:100020000C9451000C9451000C9451000C9451000C
:100030000C9451000C9451000C94B7030C94510093
:100040000C9451000C9451000C9408040C94510031
:100050000C9451000C9451000C9451000C945100DC
:100060000C9451000C94510011241FBECFEFD8E026
:10007000DEBFCDBF13E0A0E0B1E0E2EEFCE202C0E3
:1000800005900D92AA30B107D9F718E0AAE0B3E0C5
:1000900001C01D92A73AB107E1F70E944D0F0C94E1
:1000A0006F160C94000010927C0080E880BF85EAF7
:1000B00080937A00EBE7F0E08081887F808381EC99
:1000C00080937E000895FFCF20910E0330910F039F
:1000D0002F5F3F4F30930F0320930E03215030408A
:1000E000C9010895EF92FF920F93CF93DF93EC0134
:1000F00080E8888381E28983FA82EB827C836D8346
:100100005E834F8340E050E0602F70E00AC0FE0144
:10011000E80FF11DD901A40FB51F8C9180834F5FAB
:100120005F4F842F885F461757078CF3802F885FB7
:10013000DF91CF910F91FF90EF9008958091010191
:10014000089580910001089580930101089580939E
:100150000001089580910A0390910B030895809106
:100160000C0390910D03089590930B0380930A0361
:10017000089590930D0380930C030895AF92BF925E
:10018000DF92EF92FF920F931F93CF93DF93EC01D7
:10019000E62E172FD42EF52E59010E94730220E867
:1001A000288321E229839A838B831C83ED82FE823C
:1001B000DF8220E030E0402F50E00AC0FE01E80F6F
:1001C000F11DD501A20FB31F8C9180832F5F3F4F8C
:1001D000822F885F241735078CF3802F885FDF918B
:1001E000CF911F910F91FF90EF90DF90BF90AF9054
:1001F0000895CF92DF92EF92FF920F931F93CF93C8
:10020000DF939AE790939C0310929D0310929E03B4
:10021000D0909603C0909703C0929F03D092A00302
:10022000FA01E20FF11DEF2FFF0FFF0BE093A10387
:10023000240F2093A2039AE0099F800111240093C8
:10024000A303E99E70011124E092A4038093A50307
:10025000262F372FE901AAE0B0E0282F30E02B5FEE
:100260003F4F220F331F0CC08981FD01E456FC4F24
:1002700080838881FD01E356FC4F8083129622968D
:10028000A217B30789F78AEB93E060E070E04D2D89
:100290005C2D2CE933E00A2F0E94BE00482F80E03D
:1002A00090E06AEB73E050E00E943709DF91CF9154
:1002B0001F910F91FF90EF90DF90CF900895EF92F4
:1002C000FF920F9383E880939C0310929D031092FA
:1002D0009E03409196035091970350939F03409340
:1002E000A0031092A1032AEBE22E23E0F22EC70115
:1002F00060E070E02CE933E006E00E94BE00482F89
:1003000080E090E0B70150E00E9437090F91FF9024
:10031000EF900895FA018585813019F4109200015B
:1003200003C081E0809300010E945F010895CF9295
:10033000DF92EF92FF920F937C0181E880939C0300
:1003400010929D0310929E03409196035091970343
:1003500050939F034093A0031092A1033AEBC32E46
:1003600033E0D32EC60160E070E02CE933E006E014
:100370000E947200482F80E090E0B60150E00E9499
:1003800037090F91FF90EF90DF90CF900895FA0119
:10039000928180E0238130E0458540930101822BEA
:1003A000932B0E9497010895EF92FF920F9380E79D
:1003B00080939C0310929D0310929E0381E0809392
:1003C0009F0340919603509197035093A00340934D
:1003D000A1036AEBE62E63E0F62EC70160E070E051
:1003E0002CE933E006E00E94BE00482F80E090E058
:1003F000B70150E00E9437090F91FF90EF900895E8
:10040000EF92FF920F9385E280939C0310929D03DD
:1004100010929E03409196035091970350939F032F
:100420004093A00380E28093A10380E58093A20320
:10043000809101018093A30390910A0380910B03A3
:100440008093A4039093A50390910C0380910D03D6
:100450008093A6039093A7037AEBE72E73E0F72E21
:10046000C70160E070E02CE933E00CE00E94BE00C0
:10047000482F80E090E0B70150E00E9437090F91CB
:10048000FF90EF9008950E9400020895FA014085C0
:100490004A3369F04B3318F4443289F405C04038CC
:1004A00039F0423861F408C00E9400020895FFCF7D
:1004B000AF010E94C7010895AF010E948A0108950B
:1004C000FA01918580E0228530E0822B932B892BE5
:1004D00021F481E080931003089510921003089591
:1004E00080911003089520911203309113032F5F20
:1004F0003F4F309313032093120321503040C90122
:100500000895EF92FF920F93CF93DF93EC0179015F
:10051000809112039091130301969093130380939B
:100520001203019720E8288321E029839A838B8393
:100530007C836D835E834F8340E050E0602F70E0EA
:100540000AC0FE01E80FF11DD701A40FB51F8C9161
:1005500080834F5F5F4F842F885F461757078CF368
:10056000802F885FDF91CF910F91FF90EF900895DA
:10057000EF92FF920F93DF93CF93CDB7DEB72A9719
:100580000FB6F894DEBF0FBECDBF81E1898380E254
:100590008A8380E58B8381E08C838D838AEFE82ECC
:1005A00083E0F82E4091960350919703C70160E0D5
:1005B00070E09E012F5F3F4F05E00E948102482FAF
:1005C00080E090E0B70150E00E9437092A960FB60C
:1005D000F894DEBF0FBECDBFCF91DF910F91FF909A
:1005E000EF9008950F93DF93CF93CDB7DEB72A979F
:1005F0000FB6F894DEBF0FBECDBF809111038F5FA1
:100600008093110381E089831A821B8240919603B3
:10061000509197038AEF93E060E070E09E012F5FB6
:100620003F4F03E00E948102482F809111038430E4
:1006300020F0109210031092110380E090E06AEF16
:1006400073E050E00E9437092A960FB6F894DEBF97
:100650000FBECDBFCF91DF910F9108951F93FA0187
:1006600012858AE090E040EC54ED61E070E00E9479
:100670005B03113011F410921003109211031F91BB
:100680000895FA014085423019F0423199F404C0CE
:10069000AF010E942E030895918580E0228530E00D
:1006A000822B932B892B21F481E0809310030895F2
:1006B0001092100308958F30910578F4FC01EE0F2D
:1006C000FF1FEE0FFF1FE80FF91FE25CFB4F418396
:1006D00052836383748381E0808380E090E0089597
:1006E0008F309105B0F4FC01EE0FFF1FEE0FFF1FDE
:1006F000E80FF91FE25CFB4F8081882351F020E076
:1007000030E081819281A381B4810097A105B10578
:1007100011F021E030E0C90108958F30910550F4C7
:10072000FC01EE0FFF1FEE0FFF1FE80FF91FE25C49
:10073000FB4F108280E090E00895F894EEE3F4E03F
:1007400010821182128213821482359684E0E93875
:10075000F807B1F716BC14BC84E085BD8FE187BDF6
:1007600080916E00826080936E00789408951F924D
:100770000F920FB60F9211248F939F93AF93BF9355
:10078000EF93FF9380913A0490913B04A0913C0435
:10079000B0913D040196A11DB11D80933A04909340
:1007A0003B04A0933C04B0933D04EFE3F4E080816C
:1007B0009181A281B3810097A105B10539F001971C
:1007C000A109B10980839183A283B383359684E024
:1007D000EA38F80761F716BCFF91EF91BF91AF912E
:1007E0009F918F910F900FBE0F901F9018951092B0
:1007F000C00088E98093C10086E08093C200109217
:10080000C50083E38093C400519A5098589A089584
:100810001F920F920FB60F9211242F938F939F93D5
:10082000EF93FF93F8948091C00087FFFCCF8093F3
:10083000CA042091C600209389048091150390E09A
:10084000FC01E657FB4F208301968F7390708093D5
:100850001503809116038F5F809316037894FF91A0
:10086000EF919F918F912F910F900FBE0F901F903E
:100870001895DC01F894809116038823B1F081501B
:10088000809316037894E0911403F0E0E657FB4F51
:1008900080818C938091140390E001968F73907007
:1008A0008093140321E030E003C0789420E030E02E
:1008B000C9010895982F8091C00085FFFCCF9093C7
:1008C000C60081E090E008956F927F928F929F9290
:1008D000AF92BF92CF92DF92EF92FF920F931F934E
:1008E000DF93CF93CDB7DEB76C015B016DB67EB6FB
:1008F000FC0180818B3209F057C0623171050CF424
:1009000053C0C60162E071E04DE050E00E949813D0
:10091000009709F049C0C6010D960E942B104C01AA
:10092000C5014297959587952DB73EB7281B390B82
:100930000FB6F8943EBF0FBE2DBF0DB71EB70F5FA9
:100940001F4F88E1F82EEE240BC08C0D9D1D0E94D8
:100950005A10F801EE0DF11D8083E39432E0F30E9E
:100960008F2D90E08A159B0584F3F8013181248155
:10097000658180818038D1F4922F80E070E0682B0F
:10098000792B313019F0313289F407C0C401A80144
:100990002E2D30E00E94410309C0C401A8012E2D74
:1009A00030E00E94460202C080E001C081E00FB644
:1009B000F8947EBE0FBE6DBECF91DF911F910F9157
:1009C000FF90EF90DF90CF90BF90AF909F908F906F
:1009D0007F906F90089590931C0380931B037093F6
:1009E0001E0360931D0380E090E00895EF92FF9254
:1009F0001F93CF93DF937C01EB0110E009C0AE0D94
:100A0000BF1DE0911D03F0911E038C9109951F5F9E
:100A1000A12FB0E0AC17BD0794F380E090E0DF9128
:100A2000CF911F91FF90EF900895CF92DF92EF92B8
:100A3000FF920F931F93DF93CF930F92CDB7DEB743
:100A40006C018B01E0911B03F0911C03309719F4AA
:100A50002FEF3FEF61C0CE010196099518161906D8
:100A60000CF058C0809117039091180380179107DC
:100A700024F010921803109217032981222309F4FD
:100A800049C080911703909118032A30D1F5FC01D9
:100A9000E553FB4F2083019690931803809317032F
:100AA000FF24EE24E3941AC0F901E553FB4FE081E3
:100AB000042F10E0EC3561F4C90184539B4F0E9470
:100AC0005A100C0D1D1DD8018C93B2E0FB0E04C012
:100AD0000C0D1D1DD801EC93F394E3944E2D415061
:100AE0002F2D30E08091170390911803029728175B
:100AF0003907D4F21092180310921703242F30E014
:100B00000BC0FC01E553FB4F208301969093180323
:100B10008093170320E030E0C9010F90CF91DF915F
:100B20001F910F91FF90EF90DF90CF9008958091EB
:100B3000250390912403891710F0891B0895895F7C
:100B4000891B0895809195030895809395030895D6
:100B5000809121030895CF92DF92EF92FF921F932D
:100B6000CF93DF939C01162FF72E6A018091950396
:100B7000823309F066C010921F0300D000D000D06D
:100B8000EDB7FEB7319688EC97E0ADB7BEB71296D9
:100B90009C938E93119780E191E0938382833583B8
:100BA00024830E94A61380931F03212F3F2DC90188
:100BB0007C01C0E0D0E0EDB7FEB736960FB6F894F2
:100BC000FEBF0FBEEDBF1CC0D7018C9182958F7008
:100BD0000E948710E12FF0E0E853F84F80831F5FF9
:100BE00010931F03F70181917F010E948710E12F6D
:100BF000F0E0E853F84F80831F5F10931F032196A6
:100C000010911F03CC15DD05FCF2E12FF0E0E85355
:100C1000F84F8DE08083612F6F5FE62FF0E0E8539F
:100C2000F84F8AE080836F5F60931F0382E08093B8
:100C3000210383E38093950388EC97E070E00E94A2
:100C4000F604DF91CF911F91FF90EF90DF90CF904E
:100C500008950F931F93DF93CF93CDB7DEB76497BB
:100C60000FB6F894DEBF0FBECDBF00D000D000D0CD
:100C7000EDB7FEB731968E010F5F1F4FADB7BEB710
:100C800012961C930E9311972CE131E0338322834B
:100C9000958384830E94A613682F82E080932103AA
:100CA0008DB79EB706960FB6F8949EBF0FBE8DBF48
:100CB000C80170E00E94F60464960FB6F894DEBF97
:100CC0000FBECDBFCF91DF911F910F91089582E0AC
:100CD0008093210385E291E066E070E00E94F604D3
:100CE000089582E0809321038CE291E066E070E059
:100CF0000E94F604089582E08093210383E391E04B
:100D000069E070E00E94F604089582E08093210378
:100D10008DE391E064E070E00E94F604089582E0C3
:100D20008093210382E491E06AE070E00E94F6047F
:100D300008950F931F93DF93CF93CDB7DEB76497DA
:100D40000FB6F894DEBF0FBECDBF00D000D000D0EC
:100D5000EDB7FEB731968E010F5F1F4FADB7BEB72F
:100D600012961C930E9311972DE431E03383228366
:100D7000958384830E94A613682F82E080932103C9
:100D80008DB79EB706960FB6F8949EBF0FBE8DBF67
:100D9000C80170E00E94F60464960FB6F894DEBFB6
:100DA0000FBECDBFCF91DF911F910F9108950F938B
:100DB0001F93DF93CF93CDB7DEB764970FB6F89448
:100DC000DEBF0FBECDBF00D000D000D0EDB7FEB764
:100DD00031968E010F5F1F4FADB7BEB712961C93B1
:100DE0000E93119727E531E03383228384831582A4
:100DF0000E94A613682F82E0809321038DB79EB7CF
:100E000006960FB6F8949EBF0FBE8DBFC80170E066
:100E10000E94F60464960FB6F894DEBF0FBECDBFF5
:100E2000CF91DF911F910F9108950F931F93DF933F
:100E3000CF93CDB7DEB764970FB6F894DEBF0FBE81
:100E4000CDBF00D000D000D0EDB7FEB731968E01F7
:100E50000F5F1F4FADB7BEB712961C930E9311973D
:100E600021E631E033832283958384830E94A61395
:100E7000682F82E0809321038DB79EB706960FB648
:100E8000F8949EBF0FBE8DBFC80170E00E94F604AB
:100E900064960FB6F894DEBF0FBECDBFCF91DF9141
:100EA0001F910F9108950F931F93DF93CF93CDB7A9
:100EB000DEB764970FB6F894DEBF0FBECDBF00D08B
:100EC00000D000D0EDB7FEB731968E010F5F1F4FF7
:100ED000ADB7BEB712961C930E93119729E731E078
:100EE00033832283958384830E94A613682F82E034
:100EF000809321038DB79EB706960FB6F8949EBFD8
:100F00000FBE8DBFC80170E00E94F60464960FB654
:100F1000F894DEBF0FBECDBFCF91DF911F910F912F
:100F2000089582E08093210385E891E068E070E015
:100F30000E94F6040895982F82E080932103913057
:100F400019F48EE891E004C0923039F487E991E019
:100F500068E070E00E94F6040895933031F480EA6E
:100F600091E068E070E00E94F604089589EA91E05B
:100F700068E070E00E94F604089582E08093210307
:100F800082EB91E063E070E00E94F604089582E055
:100F90008093210380912603882351F486EB91E00E
:100FA00063E070E00E94F60481E0809326030895D8
:100FB0008AEB91E064E070E00E94F6041092260350
:100FC000089582E0809321038FEB91E06DE070E063
:100FD0000E94F604089582E0809321038DEC91E055
:100FE00065E070E00E94F60408950F931F93DF936D
:100FF000CF93CDB7DEB764970FB6F894DEBF0FBEC0
:10100000CDBF8E010F5F1F4FC80163ED71E00E94DD
:10101000911382E080932103C80168E070E00E9490
:10102000F60464960FB6F894DEBF0FBECDBFCF9125
:10103000DF911F910F9108950F931F93DF93CF932B
:10104000CDB7DEB764970FB6F894DEBF0FBECDBF45
:101050008E010F5F1F4FC8016CED71E00E9491136C
:1010600082E080932103C80166E070E00E94F604EC
:1010700064960FB6F894DEBF0FBECDBFCF91DF915F
:101080001F910F9108950F931F93DF93CF93CDB7C7
:10109000DEB764970FB6F894DEBF0FBECDBF8E01EA
:1010A0000F5F1F4FC80163EE71E00E94911382E051
:1010B00080932103C8016FE070E00E94F6046496FB
:1010C0000FB6F894DEBF0FBECDBFCF91DF911F9159
:1010D0000F9108950F931F93CF93DF93EC018B0132
:1010E00088818F3439F489818B3421F481E08093B5
:1010F00021030BC0CE0163EF71E045E050E00E9498
:101100009813009711F41092210380919503823077
:1011100069F1833020F4813009F073C007C0833057
:1011200009F442C0833309F06CC05CC0CE0169EFA2
:1011300071E042E050E00E949813009709F461C00A
:10114000CE016CEF71E04AE050E00E9498130097E6
:1011500009F457C00430110509F053C0CE010E94B4
:101160002B1090939903809398034BC0CE0169EFA5
:1011700071E042E050E00E949813009709F441C0EA
:10118000CE016CEF71E04AE050E00E9498130097A6
:10119000C1F104301105A9F5CE010E942B109093E6
:1011A0009B0380939A032DC0CE0169EF71E042E06A
:1011B00050E00E949813009721F1CE016CEF71E08E
:1011C0004AE050E00E9498130097D9F000311105D1
:1011D000C1F4CE010C960E942B109093970380933C
:1011E00096030FC080912103813031F482E3809314
:1011F00095031092200305C0882319F482E380939D
:101200009503DF91CF911F910F9108951F93482F60
:10121000792F162F8091250390912403891720F0B0
:10122000282F291B922F05C0895F282F291B922F59
:1012300087509730D0F42AE5829F900111242E5ACE
:101240003A4FC901642F412F50E00E9488138091CA
:101250002503E82FF0E0E55BFA4F10838F5F809362
:101260002503873010F0109225031F910895DF9217
:10127000EF92FF920F931F93CF93DF937B01EA01CD
:10128000CA0168E270E00E942A13062F0F5F10E087
:1012900083E0D82E2CC010921F03F7018381809326
:1012A000C8070093C907812F68E20E941E1380932C
:1012B000CA07D0921F03912F0CC0E62FF0E0E8532D
:1012C000F84FAE0DBF1D8C9180836F5F60931F033D
:1012D0009F5F60911F036B3228F4A92FB0E0AC1719
:1012E000BD075CF388EC97E00E940609185D812F2A
:1012F00090E08C179D077CF2DF91CF911F910F91A9
:10130000FF90EF90DF900895209125033091240302
:10131000231708F4295F231B11F4E0E01DC0E32F1D
:10132000F0E0E55BFA4F40812AE5329F90011124FD
:101330002E5A3A4FB90150E00E948813809124033D
:10134000E82FF0E0E55BFA4FE0818F5F80932403A4
:10135000873010F0109224038E2F08958091270378
:10136000882319F08F5F80932703809127038536A8
:1013700050F081E08093270380919503833319F423
:1013800082E380939503809125039091240389172C
:1013900008F4895F891B89F180919503823369F58F
:1013A00081E08093270380912103813019F410920A
:1013B000830307C0882329F4809183038F5F809380
:1013C0008303809183038F3130F00E948506109251
:1013D00095031092830389E293E00E948409482FC9
:1013E00080932803882349F080E090E069E273E06D
:1013F00050E00E94AB051092280308958AB1806CDA
:101400008AB98BB1806C8BB984B1836084B985B1A2
:10141000836085B9229A2A9A239A2B98519A509AD6
:1014200081E08BB9089584B7877F84BF2FE088E17E
:1014300090E00FB6F894A895809360000FBE2093BB
:1014400060000895289888EE93E028EC30E0F901D8
:101450003197F1F70197D9F7289A0895EEE7F8E068
:10146000828193818193919388E0E039F807C1F7F5
:101470008091220890912308918380838091870333
:10148000893088F480918703E82FF0E020912208CA
:1014900030912308EE0FFF1FEE56F74F3183208364
:1014A0008F5F80938703089588E090E00E94700327
:1014B000892B09F580918803813031F42B9A1092A1
:1014C0008803109294030BC0809194038F5F8093E4
:1014D00094038B3020F02B9884E18093940388E070
:1014E00090E00E948D0388E090E044E650E060E0E8
:1014F00070E00E945B03089583E090E00E94700317
:10150000892B69F4A89583E090E00E948D0383E025
:1015100090E044E650E060E070E00E945B030895D4
:101520008BE090E00E947003892B71F48BE090E0D7
:101530000E948D038BE090E042E350E060E070E0B9
:101540000E945B030E94AE09089581E090E00E9432
:101550007003892B11F580917A00806480937A0062
:1015600080917A0084FFFCCF80917800909179007F
:10157000909323088093220880917A008061809361
:101580007A0081E090E00E948D0381E090E04AE0E3
:1015900050E060E070E00E945B0389E090E00E9410
:1015A0007003892B09F044C086E080937C0080E4BE
:1015B0009CE90197F1F780917A00806480937A002A
:1015C00080917A0084FFFCCF80917800909179001F
:1015D0000E94B40080917A00806180937A0087E055
:1015E00080937C0080E49CE90197F1F780917A0078
:1015F000806480937A0080917A0084FFFCCF809190
:101600007800909179000E94B90080917A00806101
:1016100080937A0010927C0089E090E00E948D0314
:1016200089E090E048EB5BE060E070E00E945B03E3
:101630000895BF92CF92DF92EF92FF920F931F9384
:10164000CF93DF9310928503109286035CE8C52E3A
:1016500058E0D52E760147E0B42EF701C081D18144
:101660008091070290910802C817D90708F498C022
:1016700000910702109108020E949E00C01BD10B2E
:1016800090E0C817D90708F48BC0B39482E090E0CB
:10169000E80EF91E9AE0B91601F784E180938503FC
:1016A000BB24B39437E0F32EF601C081D181809141
:1016B0000702909108028C179D07C8F0009107025D
:1016C000109108020E949E000C1B1D0B90E0081751
:1016D000190768F0F39482E090E0C80ED91E9AE0F2
:1016E000F91611F784E180938503BB24B3942EE7A8
:1016F000E22E28E0F22EDD24F701C081D181809115
:101700000702909108028C179D0768F40091070268
:10171000109108020E949E00C01BD10B90E08C1714
:101720009D0770F40CC000910702109108020E94FE
:101730009E000C1B1D0B90E08017910708F4D394BA
:1017400082E090E0E80EF91E92E9E91698E0F906C9
:1017500099F66D2D70E0882777FD8095982F0E946F
:10176000CB1020E030E040E950E40E949B101816B6
:101770003CF4EAE0DE0ED0928603BB24B39402C0B0
:10178000D0928603B092840380918403DF91CF913D
:101790001F910F91FF90EF90DF90CF90BF90089531
:1017A000BB2480CFCF92DF92EF920F931F9386E0FE
:1017B00090E00E947003892BE1F50E94A10088232C
:1017C00061F50E94A2058233A9F410918703C090AD
:1017D0000702D09008020E949E00282F00918503E6
:1017E000E0908603812F62E978E0A6010E94F9006B
:1017F00010928703809192039091930301969093A6
:10180000930380939203895B9B4038F081E00E94B0
:10181000A700109293031092920386E090E00E943A
:101820008D0386E090E044E650E060E070E00E94C6
:101830005B031F910F91EF90DF90CF9008951F935E
:10184000DF93CF930F92CDB7DEB70E949E008983BE
:101850001091A6080E949E00181761F00E949E0039
:101860008093A608CE01019660E070E041E050E070
:101870000E94B71587E090E00E947003892B09F061
:1018800056C00E942E0A80918D0380938C030E9483
:10189000190B80938D03882329F0299A81E0809386
:1018A000880301C029980E94A205823311F5809116
:1018B0008C03882321F480918D038130D1F4209111
:1018C0008E0330918F038091900390919103821742
:1018D000930778F40E94D40110928F0310928E0324
:1018E00080919003909191034496909391038093FB
:1018F000900380918E0390918F0321E08D329207A7
:1019000028F0109291031092900305C001969093D5
:101910008F0380938E0387E090E00E948D0387E021
:1019200090E04AE050E060E070E00E945B030F90BE
:10193000CF91DF911F91089584E090E00E947003A1
:10194000892B39F50E947002882389F40E94A20530
:10195000823311F40E94B80284E090E00E948D036B
:1019600084E090E040E157E260E070E010C00E9447
:10197000A205823311F40E94F20284E090E00E94FA
:101980008D0384E090E040E25EE460E070E00E945D
:101990005B0385E090E00E947003892B29F50E948B
:1019A000171090E09260209198033091990382176C
:1019B000930719F084E10E94A50585E090E00E945C
:1019C0008D030E94A205823339F485E090E048E857
:1019D00053E160E070E006C085E090E040E25EE444
:1019E00060E070E00E945B038AE090E00E94700378
:1019F000892BA9F48AE090E00E948D038AE090E0B0
:101A000040EC54ED61E070E00E945B0381E090E007
:101A10000E9453070E94850680E00E94A505089554
:101A20000F931F9382E090E00E947003892B09F0CE
:101A30000EC282E090E00E948D030E94A2058831D0
:101A400009F47FC18931C0F4833009F494C0843033
:101A500048F4813009F456C090918B03823008F02D
:101A60006AC026C0863109F4C4C0873108F0DCC0E2
:101A7000843109F0ECC1A3C08E3109F4AAC18F31C1
:101A800050F48C3109F4EAC08D3108F086C18931F7
:101A900009F0DDC137C1803209F418C1803208F481
:101AA000FAC0823309F4C6C1833309F0D0C1C7C17B
:101AB000953160F010928B0384E10E94A50582E0CD
:101AC00090E048EC50E060E070E0BFC1892F65E035
:101AD0000E941E13992309F495C10E94A80588232A
:101AE00009F490C10E94A805813009F01BC1109231
:101AF0008B030E94A50582E090E04AE050E060E0A0
:101B000070E0A3C180918B038531C8F565E00E9428
:101B10001E13992321F00E94A805882319F40E941E
:101B20001C0800C10E94A805813009F05BC1109219
:101B30008B0382E055C1953110F5892F65E00E9435
:101B40001E13992321F00E94A805882319F40E94EE
:101B50006706E8C00E94A805813009F043C11092D1
:101B60008B0380919A0390919B038E5F9F4F09F4A2
:101B700036C183E035C180918B03853120F010920E
:101B80008B0380E02DC165E00E941E13992321F094
:101B90000E94A805882319F40E947106C3C00E9400
:101BA000A805813009F01EC110928B038091960325
:101BB00090919703892B09F415C182E311C180919B
:101BC0008B03853108F009C165E00E941E1399233B
:101BD00021F00E94A805882319F40E94B607A2C02C
:101BE0000E94A805813009F0FDC010928B0386E1A8
:101BF000F7C080918B03853108F0EFC065E00E944B
:101C00001E13992321F00E94A805882321F483E064
:101C10000E949B0787C00E94A805813009F0E2C09E
:101C200010928B0387E1DCC080918B03853108F033
:101C3000D4C065E00E941E13992321F00E94A805DC
:101C4000882319F40E9491076DC00E94A805813075
:101C500009F0C8C010928B038CE1C2C080918B0345
:101C6000853108F0BAC065E00E941E13992321F067
:101C70000E94A805882331F40E94171090E00E946A
:101C8000430850C00E94A805813009F0ABC01092F3
:101C90008B038FE1A5C080918B03853108F09DC037
:101CA00065E00E941E13992321F00E94A805882355
:101CB00021F480E00E94D70635C00E94A80581303B
:101CC00009F090C010928B0380E28AC080918B0350
:101CD000853108F082C065E00E941E13992321F02F
:101CE0000E94A805882329F480E090E00E949906CC
:101CF00019C00E94A805813009F074C010928B03AE
:101D000089E16EC080918B03853108F066C065E083
:101D10000E941E13992321F00E94A805882341F4F4
:101D20000E94F50780918B038F5F80938B035AC0CD
:101D30000E94A805813009F08AC010928B0388E1C7
:101D40004FC080918B03853108F047C065E00E9449
:101D50001E13992321F00E94A8058823B1F4009155
:101D60009803109199030E94171090E09260081751
:101D7000190739F00E94171090E092600E945307F3
:101D8000D1CF8AE10E94A505CDCF0E94A805813060
:101D900049F510928B038DE123C080918B0385312F
:101DA000E0F465E00E941E13992321F00E94A8052B
:101DB000882339F40E94171090E092600E94150762
:101DC000B1CF0E94A805813069F410928B038EE197
:101DD00007C080918B03853160F010928B0384E102
:101DE0000E94A50582E090E044E650E060E070E0EB
:101DF0002CC065E00E941E13992321F00E94A805C3
:101E0000882341F40E94850680918B038F5F809325
:101E10008B0315C00E94A8058130C9F410928B0372
:101E200080E00E94A50582E090E04CE251E060E095
:101E300070E00BC0809189038F5F8093890382E0FB
:101E400090E048EE53E060E070E00E945B0384E2C3
:101E500098E06AE570E00E941505682F80938A0378
:101E60008823C1F084E298E070E00E946A086091E3
:101E70008A0384E298E070E00E946404882351F0B1
:101E8000109289038AE090E040EC54ED61E070E04C
:101E90000E945B031F910F910895DF93CF930F92E0
:101EA000CDB7DEB70E94FE090E940A100E94F70318
:101EB0000E949D030E945300CE01019660E070E0F5
:101EC00041E050E00E94A715898181508E3F10F0BB
:101ED00080E5898389818093A6080E94A40020E080
:101EE00032E048EC50E0A89585B1832785B988E8B1
:101EF00093E1FA013197F1F70197D9F7A89585B1E8
:101F0000832785B988E893E1FA013197F1F70197C2
:101F1000D9F72F5F253039F784B7877F84BF2FE04B
:101F200088E190E00FB6F894A895809360000FBE0A
:101F30002093600089E394E06AE574E00E94EB047A
:101F400086E090E044E650E060E070E00E945B03D1
:101F500087E090E04AE050E060E070E00E945B03C0
:101F600088E090E048EE53E060E070E00E945B03A0
:101F700089E090E040E157E260E070E00E945B039E
:101F800083E090E044E650E060E070E00E945B0394
:101F900084E090E040E157E260E070E00E945B0383
:101FA00081E090E045E050E060E070E00E945B037B
:101FB00082E090E044E650E060E070E00E945B0365
:101FC00085E090E040E157E260E070E00E945B0352
:101FD0008AE090E040EE53E964E070E00E945B0329
:101FE0008BE090E040E157E260E070E00E945B032C
:101FF00078940E947C0A0E94100D0E949C0C0E9402
:102000001F0C0E94D20B0E94A50A0E94540A0E9433
:10201000900AEFCF8AB1877C8AB987B1817C87B972
:102020008BB188638BB988B18E6388B9089535996F
:1020300002C088E001C080E0349B8460339B8260F2
:10204000329B81604D9B80684C9B80644B9B80627F
:10205000319B80610895FC0120E030E04CE050E0CD
:102060009081892F80538A3020F4892F90E0C09787
:1020700010C0892F8154863020F4892F90E0C797B3
:1020800008C0892F8156863060F4892F90E08755EB
:102090009040042E02C0880F991F0A94E2F7282B63
:1020A000392B3196445050408FEF4C3F5807C1F6C2
:1020B000C9010895FC0140E024E030E09081892FBF
:1020C00080538A3020F4892F90E0C09710C0892F68
:1020D0008154863020F4892F90E0C79708C0892F5B
:1020E0008156863058F4892F90E087559040022E13
:1020F00002C0880F991F0A94E2F7482B31962450AA
:1021000030408FEF2C3F3807C9F6842F0895282FD1
:1021100030E02F7030702A3031051CF48F70805DF4
:1021200008952A5030402630310510F080E008959F
:102130008F70895C0895A8E1B0E0E1EAF0E10C94C9
:102140005D1369837A838B839C832D833E834F83C6
:10215000588789E0E82EF12CEC0EFD1ECE01019689
:10216000B7010E944D128E010F5E1F4FCE010596E2
:10217000B8010E944D128985823040F089898230F1
:1021800028F0C701B8010E94C51201C08FEF689600
:10219000E6E00C947913A8E0B0E0E1EDF0E10C94F6
:1021A0005A139B01AC0183E08983DA01C9018827B6
:1021B000B7FD83959927AA27BB27B82E211531058E
:1021C0004105510519F482E089833AC08823A9F0BA
:1021D000203080E0380780E0480780E8580729F47D
:1021E00060E070E080E09FEC30C0EE24FF248701C7
:1021F000E21AF30A040B150B02C079018A018EE181
:10220000C82ED12CDC82CB82ED82FE820F83188710
:10221000C801B7010E94291101971816190684F404
:10222000082E04C0EE0CFF1C001F111F0A94D2F7E9
:10223000ED82FE820F831887C81AD90ADC82CB820E
:10224000BA82CE0101960E9478112896E9E00C949A
:102250007613EF92FF920F931F937B018C0180E026
:10226000E81680E0F80681E0080780E0180788F4A7
:102270008FEFE816F1040105110531F028F088E030
:1022800090E0A0E0B0E017C080E090E0A0E0B0E017
:1022900012C080E0E81680E0F80680E0080781E0E0
:1022A000180728F088E190E0A0E0B0E004C080E1E9
:1022B00090E0A0E0B0E020E230E040E050E0281BF9
:1022C000390B4A0B5B0B04C016950795F794E794FE
:1022D0008A95D2F7F701E75FFD4F8081281B31090E
:1022E00041095109C9011F910F91FF90EF90089585
:1022F000DF92EF92FF920F931F93FC01E480F58031
:1023000006811781D1808081823048F480E090E09E
:10231000A0E1B0E0E82AF92A0A2B1B2BA5C08430E3
:1023200009F49FC0823021F4EE24FF24870105C008
:10233000E114F1040105110519F4E0E0F0E096C0A4
:10234000628173819FEF623879070CF05BC022E8ED
:102350003FEF261B370B2A3131052CF020E030E00F
:1023600040E050E02AC0B801A701022E04C07695D3
:102370006795579547950A94D2F781E090E0A0E0E1
:10238000B0E004C0880F991FAA1FBB1F2A95D2F77F
:102390000197A109B1098E219F21A023B1230097A4
:1023A000A105B10521F081E090E0A0E0B0E09A0144
:1023B000AB01282B392B4A2B5B2BDA01C9018F7714
:1023C0009070A070B07080349105A105B10539F40A
:1023D00027FF09C0205C3F4F4F4F5F4F04C0215C77
:1023E0003F4F4F4F5F4FE0E0F0E02030A0E03A0772
:1023F000A0E04A07A0E45A0710F0E1E0F0E079011C
:102400008A0127C06038710564F5FB01E158FF4F70
:10241000D801C7018F779070A070B070803491059B
:10242000A105B10539F4E7FE0DC080E490E0A0E01D
:10243000B0E004C08FE390E0A0E0B0E0E80EF91E49
:102440000A1F1B1F17FF05C016950795F794E79401
:10245000319687E016950795F794E7948A95D1F71A
:1024600005C0EE24FF248701EFEFF0E06E2F6795A3
:1024700066276795902F9F77D794DD24D7948E2F6A
:102480008695492F462B582F5D29B701CA011F9108
:102490000F91FF90EF90DF900895FC01DB014081E8
:1024A00051812281622F6F7770E0221F2227221F25
:1024B0009381892F880F822B282F30E0991F99272D
:1024C000991F11969C93119721153105A9F5411576
:1024D00051056105710511F482E037C082E89FEF74
:1024E00013969C938E9312979A01AB0167E0220F8B
:1024F000331F441F551F6A95D1F783E08C930DC09D
:10250000220F331F441F551F12968D919C911397D4
:10251000019713969C938E931297203080E0380792
:1025200080E0480780E4580758F314962D933D93B4
:102530004D935C93179708952F3F310579F441151A
:1025400051056105710519F484E08C93089564FFC9
:1025500003C081E08C9312C01C9210C02F573040F2
:1025600013963C932E93129783E08C9387E0440F4D
:10257000551F661F771F8A95D1F7706414964D9387
:102580005D936D937C93179708951F93DC01FB0176
:102590009C91923008F447C08081823008F443C097
:1025A000943051F411961C91843099F58181682FF3
:1025B00070E0611B71093FC0843021F0923031F42A
:1025C0008230B9F18181882389F12DC011961C9147
:1025D00011978230F1F081811817D9F412962D915C
:1025E0003C911397828193818217930794F0281767
:1025F0003907BCF014968D919D910D90BC91A02D42
:102600002481358146815781281739074A075B079E
:1026100018F4112341F00AC082179307A407B507E5
:1026200040F4112319F061E070E005C06FEF7FEF17
:1026300002C060E070E0CB011F910895991B79E022
:1026400004C0991F961708F0961B881F7A95C9F742
:102650008095089597FB092E07260AD077FD04D0B0
:102660000CD006D000201AF4709561957F4F089524
:10267000F6F7909581959F4F0895AA1BBB1B51E1DA
:1026800007C0AA1FBB1FA617B70710F0A61BB70BE2
:10269000881F991F5A95A9F780959095BC01CD0187
:1026A00008952F923F924F925F926F927F928F92F6
:1026B0009F92AF92BF92CF92DF92EF92FF920F93D1
:1026C0001F93CF93DF93CDB7DEB7CA1BDB0B0FB6DB
:1026D000F894DEBF0FBECDBF09942A883988488898
:1026E0005F846E847D848C849B84AA84B984C8842E
:1026F000DF80EE80FD800C811B81AA81B981CE0F25
:10270000D11D0FB6F894DEBF0FBECDBFED01089509
:10271000FB01DC0102C001900D9241505040D8F7FE
:102720000895FB01DC0101900D920020E1F708956E
:10273000FB01DC014150504030F08D910190801937
:1027400019F40020B9F7881B990B0895AEE0B0E0AA
:10275000ECEAF3E10C945F130D891E8986E08C830B
:102760001A8309838FEF9FE79E838D839E01275EE7
:102770003F4FCE0101966F89788DA9010E94CA133F
:102780002F813885020F131FF80110822E96E4E086
:102790000C947B13ABE0B0E0E0EDF3E10C9451134B
:1027A0003C012B015A01FC0117821682838181FDB5
:1027B00003C06FEF7FEFC6C19AE0892E1E01089417
:1027C000211C311CF3012381F20123FD859123FF9C
:1027D00081912F01882309F4B2C1853239F423FD98
:1027E000859123FF81912F01853229F490E0B30177
:1027F0000E94E515E7CF982FFF24EE249924FFE1EE
:10280000FF15D0F09B3269F09C3228F4903259F0D9
:10281000933291F40EC09D3249F0903369F441E057
:1028200024C052E0F52A84E0F82A28C098E0F92A6A
:1028300025C0E0E1FE2A22C0F7FC29C0892F805381
:102840008A3070F4F6FE05C0989C902C1124980EE6
:1028500015C0E89CE02C1124E80EF0E2FF2A0EC01F
:102860009E3229F4F6FC6BC140E4F42A07C09C3682
:1028700019F450E8F52A02C0983649F4F20123FD14
:10288000959123FF91912F01992309F0B8CF892FBA
:102890008554833018F08052833038F444E050E09F
:1028A000A40EB51E5FE359830FC0933631F0933702
:1028B00079F0933509F056C020C0F50180818983F5
:1028C00042E050E0A40EB51E610101E010E012C02C
:1028D000F501C080D180F6FC03C06FEF7FEF02C02E
:1028E000692D70E042E050E0A40EB51EC6010E94C2
:1028F000DA158C015FE7F52214C0F501C080D180A4
:10290000F6FC03C06FEF7FEF02C0692D70E042E07C
:1029100050E0A40EB51EC6010E94CF158C0150E8F0
:10292000F52AF3FE07C01AC080E290E0B3010E94CE
:10293000E515EA948E2D90E008171907A8F30EC04C
:10294000F601F7FC8591F7FE81916F0190E0B301EC
:102950000E94E515E110EA9401501040011511059F
:1029600079F7EAC0943611F0993669F5F7FE08C098
:10297000F501208131814281538184E090E00AC0D9
:10298000F501808191819C01442737FD4095542FAA
:1029900082E090E0A80EB91E9FE6F92257FF09C019
:1029A00050954095309521953F4F4F4F5F4FE0E850
:1029B000FE2ACA01B901A1012AE030E00E941116E5
:1029C000D82ED21840C0953729F41F2D1F7E2AE03B
:1029D00030E01DC01F2D197F9F3661F0903720F425
:1029E000983509F0ACC00FC0903739F0983709F02E
:1029F000A6C004C028E030E00AC0106114FD1460D5
:102A000020E130E004C014FD166020E132E017FF41
:102A100008C0F501608171818281938144E050E0BA
:102A200008C0F50180819181BC0180E090E042E026
:102A300050E0A40EB51EA1010E941116D82ED21886
:102A40008FE7F82EF122F6FE0BC05EEFF522D914C7
:102A500038F4F4FE07C0F2FC05C08FEEF82202C085
:102A60001D2D01C0192DF4FE0DC0FE01ED0DF11D4F
:102A70008081803319F499EEF92208C01F5FF2FEBD
:102A800005C003C08F2D867809F01F5F0F2DF3FC62
:102A900014C0F0FE0FC01E1510F09D2C0BC09D2C15
:102AA0009E0C911A1E2D06C080E290E0B3010E9498
:102AB000E5151F5F1E15C0F304C01E1510F4E11AC2
:102AC00001C0EE2404FF0FC080E390E0B3010E9438
:102AD000E51502FF1DC001FD03C088E790E00EC0B0
:102AE00088E590E00BC0802F867891F001FF02C04E
:102AF0008BE201C080E2F7FC8DE290E0B3010E941E
:102B0000E51506C080E390E0B3010E94E5159A94B4
:102B1000D914C0F3DA94F101ED0DF11D808190E03C
:102B2000B3010E94E515DD20A9F706C080E290E020
:102B3000B3010E94E515EA94EE20C1F743CEF301FC
:102B400066817781CB012B96E2E10C946D13DC0159
:102B5000CB01FC01F999FECF06C0F2BDE1BDF89AA8
:102B6000319600B40D9241505040B8F70895DC0101
:102B7000CB0103C02D910E94C21541505040D0F7A7
:102B80000895262FF999FECF1FBA92BD81BD20BDB1
:102B90000FB6F894FA9AF99A0FBE01960895FC01BF
:102BA0000590615070400110D8F7809590958E0F78
:102BB0009F1F0895FC016150704001900110D8F7EB
:102BC000809590958E0F9F1F08950F931F93CF931D
:102BD000DF938C01EB018B8181FF1BC082FF0DC055
:102BE0002E813F818C819D812817390764F4E8810B
:102BF000F9810193F983E88306C0E885F985802F80
:102C00000995892B31F48E819F8101969F838E8354
:102C100002C00FEF1FEFC801DF91CF911F910F91FD
:102C20000895FA01AA27283051F1203181F1E89462
:102C30006F936E7F6E5F7F4F8F4F9F4FAF4FB1E0AF
:102C40003ED0B4E03CD0670F781F891F9A1FA11DAA
:102C5000680F791F8A1F911DA11D6A0F711D811DAB
:102C6000911DA11D20D009F468943F912AE0269F70
:102C700011243019305D3193DEF6CF010895462FCF
:102C80004770405D4193B3E00FD0C9F7F6CF462FB0
:102C90004F70405D4A3318F0495D31FD4052419319
:102CA00002D0A9F7EACFB4E0A695979587957795D6
:102CB0006795BA95C9F700976105710508959B015D
:102CC000AC010A2E06945795479537952795BA95E6
:102CD000C9F7620F731F841F951FA01D0895F894F4
:022CE000FFCF24
:102CE20001502B3030303139353030303030300017
:102CF20061742B75633D253034782C0061746D2529
:102D02003034780A0061742B73610A0061742B6C91
:102D1200610A0061742B6C656176650A0061747AE0
:102D22000A0061742B706A3D3235350A0061747392
:102D320033333D25640A0061747333323D25640ADE
:102D42000061742B65693D303030303030303030C6
:102D5200303030253034780A0061742B70693D259B
:102D62003034780A0061742B7A733D310A00617441
:102D72002B6E743D310A0061742B6E743D320A0071
:102D820061742B6E743D330A0061742B75663D309D
:102D92000A0061740A002B2B2B002B2B2B0A0061DB
:102DA200742B75623D3131353230300A0061742640
:102DB200660A0061747331313D310A0061742B6F10
:102DC200690A0061742B636D3D30374646463830E0
:102DD200300A004552524F52006174002B3030309D
:102DE2003139353030300040010001020203030363
:102DF200030404040404040404050505050505058B
:102E02000505050505050505050606060606060669
:102E12000606060606060606060606060606060650
:102E22000606060606060606060707070707070739
:102E32000707070707070707070707070707070720
:102E42000707070707070707070707070707070710
:102E52000707070707070707070707070707070700
:102E620007070707070707070708080808080808E9
:102E720008080808080808080808080808080808D0
:102E820008080808080808080808080808080808C0
:102E920008080808080808080808080808080808B0
:102EA20008080808080808080808080808080808A0
:102EB2000808080808080808080808080808080890
:102EC2000808080808080808080808080808080880
:102ED2000808080808080808080808080808080870
:0A2EE200080808080808080808009E
:00000001FF
