:100000000C9434000C9451000C9451000C94510049
:100010000C9451000C9451000C9451000C9451001C
:100020000C9451000C9451000C9451000C9451000C
:100030000C9451000C9451000C9451000C945100FC
:100040000C9468070C9451000C94B4030C94510068
:100050000C9451000C9451000C9451000C945100DC
:100060000C9451000C94510011241FBECFEFD8E026
:10007000DEBFCDBF11E0A0E0B1E0E0ECFFE002C0E8
:1000800005900D92AA30B107D9F712E0AAE0B1E0CD
:1000900001C01D92A930B107E1F70E94B6050C948A
:1000A000DE070C940000FC01A081B1818D91B18329
:1000B000A0830895DC01ED91FC911197218130E03E
:1000C000908180E0282B392B3296ED93FC93C90167
:1000D0000895BC01DC01ED91FC91238130E040E00A
:1000E00050E0808190E0A0E0B0E0B82FAA279927E7
:1000F0008827282B392B4A2B5B2B818190E0A0E0AD
:10010000B0E0DC0199278827282B392B4A2B5B2B61
:10011000828190E0A0E0B0E0BA2FA92F982F882725
:10012000282B392B4A2B5B2B3496DB01ED93FC9368
:10013000B901CA010895DB01ED91FC911197E80F17
:10014000F91F40838D919C91119701968D939C93FB
:100150000895DC01FB0180819181FD01E80FF91F09
:1001600050830196A80FB91F4C930196FB01918310
:1001700080830895EF92FF920F931F938C017B0170
:10018000FB0160817181FC01E60FF71F852F992724
:10019000AA27BB2780836F5F7F4FF801E60FF71F09
:1001A000CA01AA27BB2780836F5F7F4FF801E60F44
:1001B000F71FBB27A52F942F832F80836F5F7F4F5F
:1001C000060F171FF80120836F5F7F4FF7017183C0
:1001D00060831F910F91FF90EF900895EF92FF922F
:1001E0000F931F93CF93DF937C01DC010D900020D0
:1001F000E9F71197A81BB90B79F0EC01CA0FDB1FC7
:10020000FE0182918F0190E00E94BD079E01E801EE
:10021000892BB1F7F9011082C701DF91CF911F91AE
:100220000F91FF90EF900895CF93DF93EC0101C001
:100230002196888190E00E94BD07892BC9F7CE01E5
:10024000DF91CF9108950E9414010E94EE0008955D
:100250008EBD01C0A8950DB407FEFCCF8EB50895E4
:100260005F988EBD01C0A8950DB407FEFCCF8EB57A
:100270006EBD01C0A8950DB407FEFCCF9EB55F9A78
:1002800008955F988EBD01C0A8950DB407FEFCCF00
:100290008EB5A8951EBC01C0A8950DB407FEFCCF75
:1002A0008EB55F9A08955F988EBD01C0A8950DB474
:1002B00007FEFCCF5EB5FB0190E00AC0A8951EBC0E
:1002C00001C0A8950DB407FEFCCF8EB581939F5F4A
:1002D0009417A0F35F9A852F08955F988EBD01C093
:1002E000A8950DB407FEFCCF5EB58AE18A95F1F7BB
:1002F000FB0109C080818EBD01C0A8950DB407FE29
:10030000FCCF31968EB58E2F861B841798F35F9A9B
:10031000852F08950F931F93BC015E988AE18A95FB
:10032000F1F787E08EBD01C0A8950DB407FEFCCFA4
:100330000EB506FD02C010E005C081E640E20E9455
:10034000530111E087E2602F0E9430015E9A812FF5
:100350001F910F9108950F931F938C015E988AE26D
:1003600061E071E045E00E946D0180EAB80140E281
:100370000E946D0180E26EE00E9430015E9A8AE187
:100380008A95F1F71F910F9108955E988AE261E0D6
:1003900071E045E00E946D0181E360E20E9430015E
:1003A000A89581E26FE30E943001A89582E26FE395
:1003B0000E943001A89585E260911A010E943001E7
:1003C000A89586E267E00E943001A89580E26FE080
:1003D0000E943001A8955E9A8AE18A95F1F7089506
:1003E000EF92FF920F931F937C015E9801E011E062
:1003F00080E3B80145E00E946D018AE2B80145E062
:100400000E946D0180EAB70140E20E946D0181E225
:100410006FE30E94300182E26FE30E94300184E2C8
:100420006AE00E94300185E260911A010E94300169
:1004300086E267E00E94300181E360E20E943001C1
:1004400080E26EE00E9430015E9A8AE18A95F1F7BF
:100450001F910F91FF90EF90089584B18C6284B941
:10046000249885B1886385B98AB1806C8AB952981D
:100470008BB1846C8BB980E58CBD1DBC5F9A5E9896
:10048000089580E26EE00E94300181E26FE30E94F5
:10049000300182E26FE30E94300185E260911A012F
:1004A0000E94300186E267E00E94300108955E9864
:1004B0008BE191E00E94F0018AE18A95F1F787E0F3
:1004C0000E94410185FF03C087E260E204C084FF0F
:1004D00004C087E260E10E9430015E9A0895CF93E4
:1004E000DF9381E080930001A8955E988AE18A9568
:1004F000F1F787E00E94410186FF5CC081E66BE175
:1005000071E040E20E94530187E260E40E94300102
:10051000A89580911D01803809F04CC080911E0182
:10052000813109F047C0EDE1F1E090E08191980F51
:1005300081E0E033F807D1F780818917C1F5809118
:100540002801882351F4909129018091DD018917B8
:1005500011F0109200019093DD0180912A01813009
:1005600051F490912B018091DE01891711F01092C6
:1005700000019093DE0180912C01823051F4909122
:100580002D018091DF01891711F0109200019093E5
:10059000DF0180912E01833051F490912F018091E1
:1005A000E001891711F0109200019093E00181E0C1
:1005B000809319015E9AC0EDD7E0CE010197F1F763
:1005C00080910001882339F40E945702CE010197DF
:1005D000F1F70E94C501DF91CF91089540E020E03E
:1005E00030E090E08217930711F4482F40952F5F79
:1005F0003F4F2E3F3105B1F7842F0895682F80912A
:100600000701861731F06093070188EC90E00E94A3
:10061000CD0780E00895809107018F3F31F488EC89
:1006200090E00E94C507809307018091070108951B
:10063000FC018385882389F4848520E030E040E054
:1006400090E08217930711F4482F40952F5F3F4F9A
:100650002E3F3105B1F74093DD018585813089F466
:10066000868520E030E040E090E08217930711F4A7
:10067000482F40952F5F3F4F2E3F3105B1F74093F4
:10068000DE018785823089F4808920E030E040E017
:1006900090E08217930711F4482F40952F5F3F4F4A
:1006A0002E3F3105B1F74093DF018189833089F412
:1006B000828920E030E040E090E08217930711F457
:1006C000482F40952F5F3F4F2E3F3105B1F74093A4
:1006D000E00181E0809319018BB190E489278BB907
:1006E0000E940B03882319F080E00E94FE02089507
:1006F000809106018F3F31F484E690E00E94C507A7
:10070000809306018091060108951F93FC011385D3
:100710001093060184E690E00E94C507811729F036
:1007200084E690E0612F0E94CD071F910895FC019F
:100730008085823319F0803441F404C0CF010E94D7
:1007400018030895CF010E94850308951092C000F8
:1007500088E98093C10086E08093C2001092C500B2
:1007600083E38093C40008951F920F920FB60F92F7
:1007700011242F938F939F93EF93FF93F89480917D
:10078000C00087FFFCCF80939C012091C60020937E
:100790005B0180910D0190E0FC01E45AFE4F208343
:1007A00001968F73907080930D0180910E018F5F81
:1007B00080930E017894FF91EF919F918F912F91EB
:1007C0000F900FBE0F901F901895DC01F894809148
:1007D0000E018823B1F0815080930E017894E0914E
:1007E0000C01F0E0E45AFE4F80818C9380910C0163
:1007F00090E001968F73907080930C0121E030E0BF
:1008000003C0789420E030E0C9010895982F8091CA
:10081000C00085FFFCCF9093C60081E090E0089572
:10082000FC0191818081803829F4913119F4CF0144
:100830000E94970381E0089590931401809313011F
:10084000709318016093170180E090E008950F9372
:100850001F93DF93CF930F92CDB7DEB78C01E0915A
:100860001301F0911401309719F42FEF3FEFACC052
:10087000CE0101960995181619060CF0A3C0209117
:100880000F01309110012034310524F0109216012F
:1008900010921501809115019091160182309105F9
:1008A00009F446C08330910534F40097B1F0019704
:1008B00009F084C027C08330910521F0049709F026
:1008C0007DC061C060911101709112016F5F7F4F17
:1008D00022E030E040E050E049C010921001109258
:1008E0000F0129812A3F09F06DC081E090E09093CB
:1008F00016018093150120939D0190931001809320
:100900000F0160C08981F901E356FE4F80832F5F9C
:100910003F4F3093100120930F0122E030E03093DD
:1009200016012093150180931101109212014AC003
:10093000F901E356FE4F898180832F5F3F4F30934B
:10094000100120930F0180911101909112010196E5
:1009500082179307BCF583E090E010C0F901E356DD
:10096000FE4F8081480F511D2F5F3F4F6217730765
:10097000ACF78981841711F584E090E0909316011B
:10098000809315011FC089818F3AC1F4109216011E
:1009900010921501AFE9B1E040E050E007C0F80166
:1009A000E40FF51F8D9180834F5F5F4F2091110100
:1009B000309112014217530794F306C010921601AA
:1009C0001092150120E030E0C9010F90CF91DF9126
:1009D0001F910F9108950F931F93A0E0B0E00FEACD
:1009E0001AEF24C0FB01E20FF31F20812F3FC1F457
:1009F00021812F3F29F4FC01EA0FF11D20830DC056
:100A0000213029F4FC01EA0FF11D108306C02230C9
:100A100029F4FC01EA0FF11D0083AF5FBF5F05C041
:100A2000FC01EA0FF11D2083AF5FBF5F2B2F30E089
:100A300024173507BCF28A2F90E01F910F9108957B
:100A40000F931F939C0180E0A0E0BFEF02E011E054
:100A50002DC0E60FF71F90819A3F51F4F901E80F7E
:100A6000F11DB0838F5FF901E80FF11D10830BC0FA
:100A70009F3A59F4F901E80FF11DB0838F5FF90136
:100A8000E80FF11D00838F5F10C0E82FF0E08F5F4B
:100A90009F3F41F4E20FF31F9083F901E80FF11D2E
:100AA0009083F1CFE20FF31F9083AF5FEA2FF0E066
:100AB000E417F50774F290E01F910F9108953A98AA
:100AC00088B18C6388B980ED97E00197F1F735998B
:100AD00002C088E001C080E0349B8460339B826068
:100AE000329B8160882311F48EE504C090E08F96DC
:100AF000880F991F80931A01089508958FE385B98F
:100B000014B817B888B1836088B953988BB18861DD
:100B10008BB982E085B984B98AB180668AB985E0EB
:100B200085BD80EF86BD81EA8093800083E080935D
:100B3000810010928500109284001092870010921C
:100B40008600109289001092880010928B001092FB
:100B50008A001092B6001092B1001092B20010926A
:100B6000B30015BE81E080936E000895AF92BF92EE
:100B7000CF92DF92EF92FF920F931F93DF93CF9369
:100B8000CDB7DEB7C154D0400FB6F894DEBF0FBE6C
:100B9000CDBF2FE088E190E00FB6F894A895809340
:100BA00060000FBE20936000A895A89580E197E2B1
:100BB00028EC30E0F9013197F1F70197D9F7A895C2
:100BC0000E947E050E9454077894A8950E94A6036F
:100BD00085EE93E066E074E00E941C040E942D0202
:100BE0000E945F050E94C5011092E0011092DF0192
:100BF0001092DE011092DD0180E090E044E650E0CA
:100C000060E070E00E94120781E090E042E350E073
:100C100060E070E00E94120782E090E048EE53E04E
:100C200060E070E00E94120783E090E048EE53E03D
:100C300060E070E00E94120785E090E048EE53E02B
:100C400060E070E00E9412074098409A80E090E0D7
:100C50000E942707892BC1F7409A8FEF8093880065
:100C6000EE24FF2422961FAE2297DD245E01089415
:100C7000A11CB11C40E2C42E4A990AC086E090E053
:100C800040E65AEE60E070E00E9412070E946F0298
:100C9000C50160E470E00E942704182F882369F0E2
:100CA00086E090E040E65AEE60E070E00E941207B5
:100CB000C501612F70E00E94100483E090E00E9463
:100CC0002707892BD1F5A8958BB18C258BB94B992A
:100CD00003C008E010E002C000E010E04C9902C040
:100CE0000C5F1F4F309902C00E5F1F4F319902C039
:100CF0000F5F1F4F86E090E00E942707892B71F459
:100D00000E94C5011092E0011092DF011092DE01F5
:100D10001092DD0186E090E00E94440778010430E3
:100D2000110518F033E0E32EF12C83E090E048EE5B
:100D300053E060E070E00E94120780918800F701A4
:100D4000E352FE4F9081891709F496CF8091880075
:100D5000882331F4409851E022965FAF229719C062
:100D600022968FAD22978130A1F480E090E044E696
:100D700050E060E070E00E9412074098409A80E0E6
:100D800090E00E942707892BC1F7409A22961FAE58
:100D9000229781E090E00E942707892B09F06CCF11
:100DA000F701E352FE4F808190918800282F30E0B8
:100DB000981788F480918800A901481B5109CA013D
:100DC0006AE070E00E949607653008F461E0809167
:100DD0008800860F18C08091880090E0821B930BDA
:100DE0006AE070E00E949607663010F491E001C05E
:100DF00093E054E05D1510F4DD2401C090E0D3943D
:100E000080918800891B8093880081E090E00E9497
:100E1000440781E090E041E050E060E070E00E9433
:100E200012072ACF8830910578F4FC01EE0FFF1FDE
:100E3000EE0FFF1FE80FF91FEF51FE4F4183528362
:100E40006383748381E0808380E090E0089588303C
:100E50009105B0F4FC01EE0FFF1FEE0FFF1FE80F2E
:100E6000F91FEF51FE4F8081882351F020E030E0E0
:100E700081819281A381B4810097A105B10511F010
:100E800021E030E0C90108958830910550F4FC015B
:100E9000EE0FFF1FEE0FFF1FE80FF91FEF51FE4F80
:100EA000108280E090E00895E1EEF1E0108211827E
:100EB000128213821482359682E0E930F807B1F786
:100EC00085E085BD88EF86BD81E080936E00089542
:100ED0001F920F920FB60F9211248F939F93AF938F
:100EE000BF93EF93FF93E2EEF1E080819181A281C5
:100EF000B3810097A105B10539F00197A109B109A6
:100F000080839183A283B383359682E0EA30F80729
:100F100061F788EF86BDFF91EF91BF91AF919F91EF
:100F20008F910F900FBE0F901F90189597FB092E71
:100F300007260AD077FD04D00CD006D000201AF482
:100F4000709561957F4F0895F6F7909581959F4F25
:100F50000895AA1BBB1B51E107C0AA1FBB1FA61700
:100F6000B70710F0A61BB70B881F991F5A95A9F752
:100F700080959095BC01CD01089591111CC08032DF
:100F800019F089508550D0F70895F999FECF92BD98
:100F900081BDF89A992780B50895262FF999FECF3B
:100FA0001FBA92BD81BD20BD0FB6F894FA9AF99A86
:100FB0000FBE01960895992788270895F894FFCFCA
:0A0FC00001B2B2B3B401FFFFDD007F
:00000001FF
