:100000000C9446000C9465000C9465000C946500FB
:100010000C9465000C9465000C9465000C946500CC
:100020000C9465000C9465000C9465000C946500BC
:100030000C9465000C9465000C9465000C946500AC
:100040000C9465000C9465000C9481070C94AB072C
:100050000C94D8070C9465000C9465000C94650012
:100060000C9465000C9465000C9426070C946500B4
:100070000C9465000C9465000C9428080C945508A9
:100080000C9487080C9465000C94650011241FBE25
:10009000CFEFD0E1DEBFCDBF11E0A0E0B1E0EAE1FB
:1000A000F0E200E00BBF02C007900D92AA32B10748
:1000B000D9F717E0AAE2B1E001C01D92A03AB1075A
:1000C000E1F70E94EB030C940B100C9400008FB925
:1000D000779BFECF8FB10895DC988FB9779BFECFC9
:1000E0008FB16FB9779BFECF9FB1DC9A0895DC98F2
:1000F0008FB9779BFECF8FB11FB8779BFECF8FB1A3
:10010000DC9A0895DC988FB9779BFECF5FB1FB0135
:1001100090E006C01FB8779BFECF8FB181939F5FA1
:100120009417C0F3DC9A852F0895DC988FB9779BDC
:10013000FECF5FB185E38A95F1F7FB0106C08081B0
:100140008FB9779BFECF31968FB18E2F861B841788
:10015000B0F3DC9A852F08950F931F938C01DB98E1
:100160008AE268E171E045E00E94950080EAB8010A
:1001700040E20E94950080E26EE00E946C00DB9AF3
:1001800085E38A95F1F71F910F910895DB988AE234
:1001900068E171E045E00E94950081E360E20E9421
:1001A0006C0081E26FE30E946C0082E26FE30E94C8
:1001B0006C0085E2609154010E946C0086E267E069
:1001C0000E946C0080E26FE00E946C00DB9A85E385
:1001D0008A95F1F708950F931F93DB9808E111E0DA
:1001E00080E3B80145E00E9495008AE2B80145E04D
:1001F0000E94950080EA65E771E040E20E94950068
:1002000081E26FE30E946C0082E26FE30E946C0067
:1002100084E26AE00E946C0085E2609154010E94D1
:100220006C0086E267E00E946C0081E36AE00E9455
:100230006C0080E26EE00E946C00DB9A85E38A9598
:10024000F1F71F910F91089587B3876087BBBB9823
:1002500088B38E6088BBC0988898C09A8AB388613A
:100260008ABB8BB388618BBB80E58DB91EB8DC9AE5
:10027000DB98089580E26EE00E946C0081E26FE3FB
:100280000E946C0082E26FE30E946C0085E2609144
:1002900054010E946C0086E267E00E946C000895A1
:1002A000DB9885E791E00E94EB0085E38A95F1F702
:1002B00087E00E94770085FF03C087E260E204C008
:1002C00084FF04C087E260E10E946C00DB9A08951D
:1002D0000E94C6008099FECFDB9885E38A95F1F7EE
:1002E00087E00E94770086FF0AC081E665E571E03D
:1002F00040E20E94820087E260E40E946C00DB9A88
:1003000008950F931F93CF93DF93EC01DB9885E360
:100310008A95F1F787E08FB9779BFECF0FB100D0B8
:1003200000D080E091E0EDB7FEB792838183038334
:1003300014820E94530D0F900F900F900F9006FDA6
:1003400002C010E006C081E6BE0140E20E948200C9
:1003500011E087E2602F0E946C00DB9A812FDF9111
:10036000CF911F910F91089520912A0130912B0177
:100370002F5F3F4F30932B0120932A0121503040B3
:10038000C9010895EF92FF920F93CF93DF93EC0191
:10039000790180912A0190912B01019690932B0174
:1003A00080932A01019720E8288321E229839A83F8
:1003B0008B837C836D835E834F8340E050E0602FAE
:1003C00070E00AC0FE01E80FF11DD701A40FB51FB0
:1003D0008C9180834F5F5F4F842F885F461757074C
:1003E0008CF3802F885FDF91CF910F91FF90EF907A
:1003F0000895EF92FF920F93CF93DF93EC0180E883
:10040000888381E28983FA82EB827C836D835E83B9
:100410004F8340E050E0602F70E00AC0FE01E80F1B
:10042000F11DD901A40FB51F8C9180834F5F5F4FE1
:10043000842F885F461757078CF3802F885FDF91E2
:10044000CF910F91FF90EF900895CF92DF92EF92AE
:10045000FF920F93DF93CF93CDB7DEB7A0970FB680
:10046000F894DEBF0FBECDBF7C0185E289831A827E
:100470001B827C836D8380E28E8380E48F83488738
:1004800085E9C82E81E0D82E4091940750919507B8
:10049000C60160E070E09E012F5F3F4F08E00E94C0
:1004A000F901482F80E090E0B60150E00E94960CE0
:1004B000A0960FB6F894DEBF0FBECDBFCF91DF91EF
:1004C0000F91FF90EF90DF90CF900895FB01928104
:1004D00080E0238130E06091940770919507822B32
:1004E000932B40E00E94250208959C01FB0180852A
:1004F000843219F4C9010E94660208951BBA8FEF75
:100500008ABB9FE095BB84BB9FE992BB81BB809374
:100510006200809361008093650080936400089579
:10052000149883B1806F83B980EA9FE00197F1F757
:1005300081B18095881F8827881F880F880F880FB2
:100540000E9B84600D9B82600C9B8160882311F45C
:100550008EE504C090E08F96880F991F8093540118
:100560000895979888EE93E020E931E0F9013197FA
:10057000F1F70197D9F7979A089584B7877F84BFD9
:100580002FE088E190E00FB6F894A89581BD0FBEEA
:1005900021BD089586E090E00E94D406892B49F59C
:1005A0000E940F06882399F40E94080C833011F4EE
:1005B0000E94490686E090E00E94F10686E090E005
:1005C00040E157E260E070E00E94BF0608950E949B
:1005D000080C833011F40E94830686E090E00E94AC
:1005E000F10686E090E040E25EE460E070E00E94A8
:1005F000BF0608950F931F93CF93DF9381E090E0A0
:100600000E94D406892B99F40E94870C80912C01BA
:100610008F5F80932C0181E090E00E94F10681E0E1
:1006200090E040E157E260E070E00E94BF060E9467
:10063000080C823030F480912C01863020F00E942A
:10064000B10210922C0185ED91E060E470E00E940F
:10065000F70AEC0190932E0180932D0118161906CC
:100660000CF03FC08091D501882319F08031C9F585
:1006700009C0CE018150682F86ED91E070E00E94A4
:10068000E40C2FC01091D8010091D9019091DE01A6
:1006900080E02091DF0130E0822B932B20919407A2
:1006A0003091950782179307E1F487E090E00E946C
:1006B000F10687E090E040ED57E060E070E00E94D6
:1006C000BF06912F80E0202F30E0BE016550462FFD
:1006D00050E045505040822B932B6AED71E00E9410
:1006E000DC0887E090E00E94D406892B71F40E9418
:1006F000490687E090E00E94F10687E090E040ED37
:1007000057E060E070E00E94BF06DF91CF911F913B
:100710000F91089582E090E00E94D406892BB1F4F5
:10072000A895849B02C0949801C0949A81E061E0EE
:100730000E94650582E090E00E94F10682E090E070
:1007400044EF51E060E070E00E94BF0685E090E079
:100750000E94D406892BF1F50E94440D882371F57F
:1007600080912F01882329F481E080932F0184E375
:1007700006C0813069F482E080932F0187E6809380
:10078000250180932601809327018093280116C0BC
:10079000823029F483E080932F018AE9F0CF8330FF
:1007A00029F484E080932F018DECE9CF843021F48B
:1007B00010922F018EEFE3CF10922F0185E090E091
:1007C0000E94F10685E090E048EB5BE060E070E0BD
:1007D0000E94BF0608950E947E020E943D0D0E9465
:1007E00069070E94010784B7877F84BF2FE088E1F3
:1007F00090E00FB6F894A89581BD0FBE21BD0E9470
:1008000090020E9424018FEF6FEF0E94650515BAD8
:100810001FBC86E08EBD8FEF8DBD8CBD87B7846019
:1008200087BF85E10E94250C88EE93E020E931E046
:10083000F9013197F1F70197D9F70E94630C80E134
:1008400097E220E931E0F9013197F1F70197D9F703
:1008500082E090E044EF51E060E070E00E94BF066B
:1008600085E090E048EB5BE060E070E00E94BF064E
:1008700081E090E048EB5BE060E070E00E94BF0642
:1008800084E090E044E650E060E070E00E94BF0643
:1008900086E090E040ED57E060E070E00E94BF0627
:1008A0001092960784E098E062E278E00E94F408F3
:1008B00084EB98E062ED78E00E94FF080E948A03D2
:1008C0000E94FA020E94CA02F9CF209130013091B1
:1008D00031012F5F3F4F3093310120933001215080
:1008E0003040C9010895EF92FF920F93CF93DF93A9
:1008F000EC01790180913001909131010196909342
:10090000310180933001019720E8288321E1298378
:100910009A838B837C836D835E834F8340E050E0BA
:10092000602F70E00AC0FE01E80FF11DD701A40F8F
:10093000B51F8C9180834F5F5F4F842F885F461770
:1009400057078CF3802F885FDF91CF910F91FF9035
:10095000EF900895EF92FF920F93CF93DF93EC0106
:1009600080E8888381E18983FA82EB827C836D83CE
:100970005E834F8340E050E0602F70E00AC0FE01CC
:10098000E80FF11DD901A40FB51F8C9180834F5F33
:100990005F4F842F885F461757078CF3802F885F3F
:1009A000DF91CF910F91FF90EF900895E5E2F1E094
:1009B000E80FF11D80810895EF92FF920F93DF936E
:1009C000CF93CDB7DEB72A970FB6F894DEBF0FBE30
:1009D000CDBF90E4998320919407909195079A83D5
:1009E0002B838C8385E1E82E82E0F82EC70160E03E
:1009F00070E040E050E09E012F5F3F4F04E00E9416
:100A00007304682FC70170E00E9486092A960FB60A
:100A1000F894DEBF0FBECDBFCF91DF910F91FF9055
:100A2000EF900895EF92FF920F931F93DF93CF9370
:100A3000CDB7DEB72A970FB6F894DEBF0FBECDBF95
:100A4000162F00D08DE191E0EDB7FEB79283818340
:100A50000E94530D82E389839091940780919507BA
:100A60008A839B831C821D8381E08E831F8382E0A7
:100A70008887198783E08A871B870F900F9095E1FD
:100A8000E92E92E0F92EC70160E070E040E050E00E
:100A90009E012F5F3F4F0BE00E947304182FC70188
:100AA000612F70E00E948609C701612F0E94BE0B72
:100AB0002A960FB6F894DEBF0FBECDBFCF91DF915F
:100AC0001F910F91FF90EF900895EF92FF920F9377
:100AD0001F93DF93CF93CDB7DEB72F970FB6F89460
:100AE000DEBF0FBECDBF82E38983909194078091D2
:100AF00095078A839B831C82809125018D8381E0E9
:100B00008E83809126018F8382E0888780912701E0
:100B1000898783E08A87809128018B8725E1E22EEF
:100B200022E0F22EC70160E070E040E050E09E015C
:100B30002F5F3F4F0BE00E947304182FC701612FF6
:100B400070E00E948609C701612F0E94BE0B2F969C
:100B50000FB6F894DEBF0FBECDBFCF91DF911F91CE
:100B60000F91FF90EF900895FC0183856485843098
:100B700038F4E82FF0E0EB5DFE4F60830E946505DE
:100B80000895FB018085823321F4CB01BA010E94D4
:100B9000B4050895FB018085823019F08231B9F4E3
:100BA00008C08285813011F4109232011092330115
:100BB0000895918580E0228530E0822B932B892B4C
:100BC00021F481E08093320108951092320108955A
:100BD000FB018285813011F41092320110923301B1
:100BE0000895FB01918580E0228530E0822B932BD4
:100BF000892B21F481E08093320108951092320113
:100C0000089520913401309135012F5F3F4F30938B
:100C100035012093340121503040C901089580915D
:100C200032010895EF92FF920F93CF93DF93EC017F
:100C300079018091340190913501019690933501AD
:100C400080933401019720E8288321E029839A8347
:100C50008B837C836D835E834F8340E050E0602F05
:100C600070E00AC0FE01E80FF11DD701A40FB51F07
:100C70008C9180834F5F5F4F842F885F46175707A3
:100C80008CF3802F885FDF91CF910F91FF90EF90D1
:100C90000895EF92FF920F93DF93CF93CDB7DEB716
:100CA0002A970FB6F894DEBF0FBECDBF81E18983CE
:100CB00080E28A8380E48B838EE18C838D8388E558
:100CC000E82E82E0F82E4091940750919507C701D5
:100CD00060E070E09E012F5F3F4F05E00E9412062A
:100CE000482F80E090E0B70150E00E94960C2A96D1
:100CF0000FB6F894DEBF0FBECDBFCF91DF910F913D
:100D0000FF90EF9008950F93DF93CF93CDB7DEB7A9
:100D10002A970FB6F894DEBF0FBECDBF8091330186
:100D20008F5F8093330181E089831A821B82409117
:100D300094075091950788E592E060E070E09E018D
:100D40002F5F3F4F03E00E941206482F809133012E
:100D5000843020F0109232011092330180E090E054
:100D600068E572E050E00E94960C2A960FB6F8945F
:100D7000DEBF0FBECDBFCF91DF910F9108958A30B6
:100D8000910578F4FC01EE0FFF1FEE0FFF1FE80F37
:100D9000F91FEE55FD4F418352836383748381E0D5
:100DA000808380E090E008958A309105B0F4FC01E2
:100DB000EE0FFF1FEE0FFF1FE80FF91FEE55FD4F5F
:100DC0008081882351F020E030E081819281A381ED
:100DD000B4810097A105B10511F021E030E0C9010F
:100DE00008958A30910550F4FC01EE0FFF1FEE0FBD
:100DF000FF1FE80FF91FEE55FD4F108280E090E0D5
:100E00000895F894E2EAF2E01082118212821382CD
:100E10001482359682E0E43DF807B1F7109289001C
:100E20001092880080E480938B008CE080938A008D
:100E300010928C00109287008EE380938600809140
:100E40007D00806180937D00789408951F920F92B9
:100E50000FB60F920BB60F9211248F939F93AF93FF
:100E6000BF93EF93FF9380919E0290919F02A09178
:100E7000A002B091A1020196A11DB11D80939E0216
:100E800090939F02A093A002B093A102E3EAF2E044
:100E900080819181A281B3810097A105B10539F0CC
:100EA0000197A109B10980839183A283B383359609
:100EB00082E0E53DF80761F7FF91EF91BF91AF91B7
:100EC0009F918F910F900BBE0F900FBE0F901F90B0
:100ED000189582E08BB988ED8AB996E090939500D9
:100EE0001092900080E189B910929B0088E0809375
:100EF0009A0090939D001092980087E68093990045
:100F000008951F920F920FB60F920BB60F921124F5
:100F10002F938F939F93EF93FF935F9BFECF2CB103
:100F20008091370190E0FC01EC52FC4F2083019648
:100F300080933701809138018F5F80933801FF9152
:100F4000EF919F918F912F910F900BBE0F900FBE3D
:100F50000F901F9018951F920F920FB60F920BB61D
:100F60000F9211242F933F938F939F93EF93FF93AF
:100F700030913B01332371F08091390190E0FC0105
:100F8000EC52FB4F20812CB90196809339013150EE
:100F900030933B015598FF91EF919F918F913F9135
:100FA0002F910F900BBE0F900FBE0F901F901895B2
:100FB0001F920F920FB60F920BB60F9211242F9320
:100FC0003F938F939F93EF93FF9330913B01332394
:100FD00071F08091390190E0FC01EC52FB4F2081CF
:100FE0002CB9019680933901315030933B01FF9128
:100FF000EF919F918F913F912F910F900BBE0F908A
:101000000FBE0F901F901895DC01F8948091380165
:10101000882399F08150809338017894E0913601CB
:10102000F0E0EC52FC4F80818C93809136018F5F11
:101030008093360121E030E003C0789420E030E076
:10104000C90108955D9BFECF8CB981E090E00895C1
:101050001F920F920FB60F920BB60F9211242F937F
:101060008F939F93EF93FF9380919B0087FFFCCF1B
:1010700020919C0080913D0190E0FC01EC52FA4FE0
:101080002083019680933D0180913E018F5F809384
:101090003E01FF91EF919F918F912F910F900BBE89
:1010A0000F900FBE0F901F9018951F920F920FB6C2
:1010B0000F920BB60F9211242F933F938F939F9310
:1010C000EF93FF9330914101332379F080913F01F9
:1010D00090E0FC01EC52FD4F208120939C00019692
:1010E00080933F0131503093410180919A008F7D70
:1010F00080939A00FF91EF919F918F913F912F9153
:101100000F900BBE0F900FBE0F901F9018951F925F
:101110000F920FB60F920BB60F9211242F933F939D
:101120008F939F93EF93FF9330914101332379F095
:1011300080913F0190E0FC01EC52FD4F2081209313
:101140009C00019680933F01315030934101FF9103
:10115000EF919F918F913F912F910F900BBE0F9028
:101160000FBE0F901F901895DC01F89480913E01FE
:10117000882399F0815080933E017894E0913C015E
:10118000F0E0EC52FA4F80818C9380913C018F5FAC
:1011900080933C0121E030E003C0789420E030E00F
:1011A000C9010895982F80919B0085FFFCCF9093F3
:1011B0009C0081E090E008959C01FB019181808179
:1011C000803889F4913161F0913231F0913059F4E5
:1011D000C9010E94CA050895C9010E9475020895B7
:1011E000C9010E94C1050895909351018093500157
:1011F000709353016093520180E090E008959093C2
:101200004B0180934A0170934F0160934E0180E03F
:1012100090E00895CF92DF92EF92FF920F931F9389
:10122000DF93CF93CDB7DEB7C054D0400FB6F8945C
:10123000DEBF0FBECDBFAC01809152019091530132
:10124000892B19F42FEF3FEF50C08AEF89836A830F
:1012500020E030E002E010E07E010894E11CF11C87
:101260000CC0F701E00FF11FDA01A20FB31F8C9140
:1012700080830F5F1F4F2F5F3F4F261737078CF379
:1012800022E030E040E050E0DE01119608C0FD01B0
:10129000E20FF31F8081480F511D2F5F3F4F201732
:1012A0003107ACF3FD01E00FF11F40837801089492
:1012B000E11CF11CAE0DBF1D8FEA8C9300E010E025
:1012C0006E010894C11CD11CF601E00FF11F2091A2
:1012D0005201309153018081F90109950F5F1F4F31
:1012E000E016F1068CF720E030E0C901C05CDF4F6A
:1012F0000FB6F894DEBF0FBECDBFCF91DF911F9127
:101300000F91FF90EF90DF90CF900895CF92DF92F2
:10131000EF92FF920F931F93DF93CF93CDB7DEB77A
:10132000C054D0400FB6F894DEBF0FBECDBFAC01A5
:1013300080914E0190914F01892B19F42FEF3FEFCF
:1013400050C08AEF89836A8320E030E002E010E039
:101350007E010894E11CF11C0CC0F701E00FF11FA5
:10136000DA01A20FB31F8C9180830F5F1F4F2F5F95
:101370003F4F261737078CF322E030E040E050E083
:10138000DE01119608C0FD01E20FF31F8081480FB6
:10139000511D2F5F3F4F20173107ACF3FD01E00FC8
:1013A000F11F408378010894E11CF11CAE0DBF1DB4
:1013B0008FEA8C9300E010E06E010894C11CD11CF0
:1013C000F601E00FF11F20914E0130914F01808115
:1013D000F90109950F5F1F4FE016F1068CF720E029
:1013E00030E0C901C05CDF4F0FB6F894DEBF0FBE1E
:1013F000CDBFCF91DF911F910F91FF90EF90DF90C4
:10140000CF9008950F931F93DF93CF930F92CDB793
:10141000DEB78C01E0914A01F0914B01309719F44D
:101420002FEF3FEFA8C0CE010196099518161906B7
:101430000CF09FC080914C0190914D01823091053C
:1014400009F449C08330910534F40097B1F0019755
:1014500009F08BC027C08330910521F0049709F073
:1014600084C068C060914801709149016F5F7F4FEF
:1014700022E030E040E050E050C01092470110926E
:10148000460129812A3F09F074C081E090E09093E1
:101490004D0180934C012093540790934701809312
:1014A000460167C080914601909147012981FC0166
:1014B000EC5AF84F208301969093470180934601A0
:1014C00082E090E090934D0180934C01209348017D
:1014D000109249014EC02091460130914701F90117
:1014E000EC5AF84F898180832F5F3F4F309347013B
:1014F00020934601809148019091490101968217FD
:101500009307BCF583E090E010C0F901EC5AF84F66
:101510008081480F511D2F5F3F4F62177307ACF753
:101520008981841711F584E090E090934D018093B8
:101530004C011FC089818F3AC1F410924D01109265
:101540004C01A6E5B7E040E050E007C0F801E40F29
:10155000F51F8D9180834F5F5F4F2091480130913F
:1015600049014217530794F306C010924D0110929F
:101570004C0120E030E0C9010F90CF91DF911F9125
:101580000F9108950F931F93A0E0B0E00FEA1AEFB8
:1015900024C0FB01E20FF31F20812F3FC1F4218102
:1015A0002F3F29F4FC01EA0FF11D20830DC02130EB
:1015B00029F4FC01EA0FF11D108306C0223029F442
:1015C000FC01EA0FF11D0083AF5FBF5F05C0FC01A6
:1015D000EA0FF11D2083AF5FBF5F2B2F30E0241790
:1015E0003507BCF28A2F90E01F910F910895EF927A
:1015F000FF920F931F93DF93CF93CDB7DEB7C15404
:10160000D0400FB6F894DEBF0FBECDBFF82EE92E46
:101610008B01E0915001F0915101309719F42FEFB7
:101620003FEF5EC0CE0101960995181619060CF021
:1016300055C080914201909143018017910724F099
:10164000109243011092420189818A3F49F48093AC
:10165000140781E090E090934301809342013EC0E3
:1016600040914201509143018F3A71F541505040F1
:10167000CE01029665E177E00E94C20A282F22502F
:101680008A81281759F581E090E0422F50E001C08F
:10169000019684179507E4F38F2D9E2D9C01D901A7
:1016A00020E030E0BE016E5F7F4F05C0FB01E20F1E
:1016B000F31F80818D93822F2F5F3F4F4217530777
:1016C000ACF7282F30E00CC0FA01EC5EF84F8083B5
:1016D0004F5F5F4F509343014093420120E030E061
:1016E000C901CF5BDF4F0FB6F894DEBF0FBECDBF91
:1016F000CF91DF911F910F91FF90EF9008950F937D
:101700001F939C0180E0A0E0BFEF02E011E02DC03C
:10171000E60FF71F90819A3F51F4F901E80FF11D90
:10172000B0838F5FF901E80FF11D10830BC09F3A62
:1017300059F4F901E80FF11DB0838F5FF901E80F4B
:10174000F11D00838F5F10C0E82FF0E08F5F9F3F97
:1017500041F4E20FF31F9083F901E80FF11D90832C
:10176000F1CFE20FF31F9083AF5FEA2FF0E0E417B1
:10177000F50774F290E01F910F910895CF93DF93D6
:101780002AEF2093750160937601EC01E7E7F1E021
:10179000DF0170E06E5F7F4F9B012B583E4F02C010
:1017A00089918D93A217B307D9F790E002C0819178
:1017B000980FEA17FB07D9F7FB01EB58FE4F908310
:1017C0008FEA81830E94500188EC90E020E931E0AB
:1017D000F9013197F1F70197D9F70E94500188EC90
:1017E00090E020E931E0F9013197F1F70197D9F75D
:1017F0000E94500188EC90E020E931E0F901319736
:10180000F1F70197D9F780E090E0DF91CF9108954B
:1018100080919607089521E12093D4069093D506F0
:101820008093D60690919407809195078093D70670
:101830009093D80684ED96E065E070E00E940A0976
:1018400080EE9EE20197F1F708951092D40690E49D
:101850009093D50695E09093D6068093D70684EDB5
:1018600096E064E070E00E940A0980EE9EE2019733
:10187000F1F708951092D40690E49093D50692E083
:101880009093D6068093D70684ED96E064E070E0EE
:101890000E940A0980EE9EE20197F1F708951092E6
:1018A000D40620E32093D5069093D6068093D706DE
:1018B00084ED96E064E070E00E940A0980EE9EE20A
:1018C0000197F1F708951092D40681E08093D50630
:1018D0008093D60684ED96E063E070E00E940A09EA
:1018E00080EE9EE20197F1F708951092D40680E110
:1018F0008093D5061092D60684ED96E063E070E002
:101900000E940A0980EE9EE20197F1F70895109275
:10191000D4061092D50684ED96E062E070E00E9455
:101920000A0980EE9EE20197F1F70895EF92FF9287
:101930000F931F93DF93CF93CDB7DEB7C058D0403E
:101940000FB6F894DEBF0FBECDBF7B018A0120E148
:1019500029839A838B8390919407809195078C8338
:101960009D8345E050E020E030E0BE016F5F7F4F97
:101970000CC0FB01E40FF51FD701A20FB31F8C9120
:1019800080834F5F5F4F2F5F3F4F201731078CF3EE
:101990008E010F5B1F4FC8010E947F0BBC01C80165
:1019A0000E940A0980EE9EE20197F1F7C058DF4FCE
:1019B0000FB6F894DEBF0FBECDBFCF91DF911F9160
:1019C0000F91FF90EF900895FF920F931F93FC01EA
:1019D000F08081E1F81689F181EAF81609F447C030
:1019E00081E0F81609F045C0938580E0248530E059
:1019F000822B932B9093950780939407958580E095
:101A0000068510E0082B192B109398070093970771
:101A10000E94440D90E091600817190759F0109248
:101A200096070E94440D90E091600E944F0C0E9426
:101A3000630C1FC0F092960713C0018500939907AD
:101A40000E94440D10E090E08F7090700B96081784
:101A5000190749F00E94440D8F70855F0E943A0C6F
:101A60000E94750C06C083E08093960702C00E9416
:101A7000870C1F910F91FF90089587B38F7087BBDC
:101A800088B3806F88BB089586B38095881F8827A8
:101A9000881F880F880F880FB69B8460B59B826073
:101AA000B49B81600895DF93CF93CDB7DEB7FE017D
:101AB00035966191719180919C0790919D07AF013E
:101AC0000E94650DCF91DF9108952F923F924F9222
:101AD0005F926F927F928F929F92AF92BF92CF92BE
:101AE000DF92EF92FF920F931F93DF93CF93CDB7C7
:101AF000DEB72B970FB6F894DEBF0FBECDBF3C010B
:101B00002B015A01FC0117821682838181FD03C0DB
:101B10006FEF7FEFC6C19AE0892E1E010894211C49
:101B2000311CF3012381F20123FD859123FF819173
:101B30002F01882309F4B2C1853239F423FD859140
:101B400023FF81912F01853229F490E0B3010E9497
:101B5000810FE7CF982FFF24EE249924FFE1FF1592
:101B6000D0F09B3269F09C3228F4903259F09332D5
:101B700091F40EC09D3249F0903369F441E024C0E5
:101B800052E0F52A84E0F82A28C098E0F92A25C016
:101B9000E0E1FE2A22C0F7FC29C0892F80538A3059
:101BA00070F4F6FE05C0989C902C1124980E15C078
:101BB000E89CE02C1124E80EF0E2FF2A0EC09E32D1
:101BC00029F4F6FC6BC140E4F42A07C09C3619F4F2
:101BD00050E8F52A02C0983649F4F20123FD9591A8
:101BE00023FF91912F01992309F0B8CF892F8554B4
:101BF000833018F08052833038F444E050E0A40E73
:101C0000B51E5FE359830FC0933631F0933779F0F7
:101C1000933509F056C020C0F5018081898342E0E8
:101C200050E0A40EB51E610101E010E012C0F50104
:101C3000C080D180F6FC03C06FEF7FEF02C0692D3A
:101C400070E042E050E0A40EB51EC6010E94760F7F
:101C50008C015FE7F52214C0F501C080D180F6FC4D
:101C600003C06FEF7FEF02C0692D70E042E050E0EB
:101C7000A40EB51EC6010E946B0F8C0150E8F52A18
:101C8000F3FE07C01AC080E290E0B3010E94810F0A
:101C9000EA948E2D90E008171907A8F30EC0F601FC
:101CA000F7FC8591F7FE81916F0190E0B3010E94EE
:101CB000810FE110EA94015010400115110579F7E8
:101CC000EAC0943611F0993669F5F7FE08C0F501BF
:101CD000208131814281538184E090E00AC0F50186
:101CE000808191819C01442737FD4095542F82E0EB
:101CF00090E0A80EB91E9FE6F92257FF09C0509543
:101D00004095309521953F4F4F4F5F4FE0E8FE2AB9
:101D1000CA01B901A1012AE030E00E94AD0FD82E1E
:101D2000D21840C0953729F41F2D1F7E2AE030E0DD
:101D30001DC01F2D197F9F3661F0903720F4983514
:101D400009F0ACC00FC0903739F0983709F0A6C041
:101D500004C028E030E00AC0106114FD146020E1E6
:101D600030E004C014FD166020E132E017FF08C027
:101D7000F501608171818281938144E050E008C067
:101D8000F50180819181BC0180E090E042E050E06B
:101D9000A40EB51EA1010E94AD0FD82ED2188FE758
:101DA000F82EF122F6FE0BC05EEFF522D91438F4BE
:101DB000F4FE07C0F2FC05C08FEEF82202C01D2D14
:101DC00001C0192DF4FE0DC0FE01ED0DF11D808145
:101DD000803319F499EEF92208C01F5FF2FE05C0A6
:101DE00003C08F2D867809F01F5F0F2DF3FC14C000
:101DF000F0FE0FC01E1510F09D2C0BC09D2C9E0CEC
:101E0000911A1E2D06C080E290E0B3010E94810F5E
:101E10001F5F1E15C0F304C01E1510F4E11A01C0A7
:101E2000EE2404FF0FC080E390E0B3010E94810F15
:101E300002FF1DC001FD03C088E790E00EC088E5E9
:101E400090E00BC0802F867891F001FF02C08BE2FA
:101E500001C080E2F7FC8DE290E0B3010E94810FA7
:101E600006C080E390E0B3010E94810F9A94D914D8
:101E7000C0F3DA94F101ED0DF11D808190E0B30122
:101E80000E94810FDD20A9F706C080E290E0B30137
:101E90000E94810FEA94EE20C1F743CEF3016681E0
:101EA0007781CB012B960FB6F894DEBF0FBECDBF66
:101EB000CF91DF911F910F91FF90EF90DF90CF9026
:101EC000BF90AF909F908F907F906F905F904F905A
:101ED0003F902F900895FC010590615070400110D3
:101EE000D8F7809590958E0F9F1F0895FC01615043
:101EF000704001900110D8F7809590958E0F9F1F2C
:101F000008950F931F93CF93DF938C01EB018B8187
:101F100081FF1BC082FF0DC02E813F818C819D817E
:101F20002817390764F4E881F9810193F983E8837C
:101F300006C0E885F985802F0995892B31F48E81BB
:101F40009F8101969F838E8302C00FEF1FEFC80110
:101F5000DF91CF911F910F910895FA01AA272830A0
:101F600051F1203181F1E8946F936E7F6E5F7F4F66
:101F70008F4F9F4FAF4FB1E03ED0B4E03CD0670FE2
:101F8000781F891F9A1FA11D680F791F8A1F911D35
:101F9000A11D6A0F711D811D911DA11D20D009F485
:101FA00068943F912AE0269F11243019305D3193C7
:101FB000DEF6CF010895462F4770405D4193B3E0B0
:101FC0000FD0C9F7F6CF462F4F70405D4A3318F057
:101FD000495D31FD4052419302D0A9F7EACFB4E008
:101FE000A6959795879577956795BA95C9F70097C0
:101FF0006105710508959B01AC010A2E0694579561
:10200000479537952795BA95C9F7620F731F841FB7
:0A201000951FA01D0895F894FFCF5E
:10201A00535441545553BDD3CADCD7B4CCACA3BA3C
:10202A0030782532780D0A00B2B2B3B4014D44506B
:0A203A0020310A0D00FFFFFFFF0038
:00000001FF
