:100000000C9446000C9465000C9465000C946500FB
:100010000C9465000C9465000C9465000C946500CC
:100020000C9465000C9465000C9465000C946500BC
:100030000C9465000C9465000C9465000C946500AC
:100040000C9465000C9465000C947F070C94A90730
:100050000C94D6070C9465000C9465000C94650014
:100060000C9465000C9465000C9424070C946500B6
:100070000C9465000C9465000C9426080C945308AD
:100080000C9485080C9465000C94650011241FBE27
:10009000CFEFD0E1DEBFCDBF11E0A0E0B1E0E0EEF8
:1000A000FFE100E00BBF02C007900D92A232B10742
:1000B000D9F717E0A2E2B1E001C01D92A839B1075B
:1000C000E1F70E94EB030C94EE0F0C94000021B1B9
:1000D0002095221F2227221F220F220F220F0E9B64
:1000E00024600D9B22600C9B2160222311F48EE57D
:1000F00005C0822F90E08F96880F991F80934C0146
:10010000822F08958FB9779BFECF8FB10895DC9829
:100110008FB9779BFECF8FB16FB9779BFECF9FB121
:10012000DC9A0895DC988FB9779BFECF8FB11FB80A
:10013000779BFECF8FB1DC9A0895DC988FB9779BBF
:10014000FECF5FB1FB0190E006C01FB8779BFECFEA
:100150008FB181939F5F9417C0F3DC9A852F089528
:10016000DC988FB9779BFECF5FB185E38A95F1F775
:10017000FB0106C080818FB9779BFECF31968FB18E
:100180008E2F861B8417B0F3DC9A852F08950F936A
:100190001F938C01DB988AE268E171E045E00E94E0
:1001A000B00080EAB80140E20E94B00080E26EE058
:1001B0000E948700DB9A85E38A95F1F71F910F91E2
:1001C0000895DB988AE268E171E045E00E94B000A2
:1001D00081E360E20E94870081E26FE30E94870072
:1001E00082E26FE30E94870085E260914C010E94E9
:1001F000870086E267E00E94870080E26FE00E944D
:100200008700DB9A85E38A95F1F708950F931F9392
:10021000DB9808E111E080E3B80145E00E94B000FE
:100220008AE2B80145E00E94B00080EA6DE671E024
:1002300040E20E94B00081E26FE30E94870082E208
:100240006FE30E94870084E26AE00E94870085E2F3
:1002500060914C010E94870086E267E00E9487005F
:1002600081E36AE00E94870080E26EE00E948700DE
:10027000DB9A85E38A95F1F71F910F91089587B373
:10028000876087BBBB9888B38E6088BBC09888980E
:10029000C09A8AB388618ABB8BB388618BBB80E5C7
:1002A0008DB91EB8DC9ADB98089580E26EE00E945A
:1002B000870081E26FE30E94870082E26FE30E9481
:1002C000870085E260914C010E94870086E267E02A
:1002D0000E9487000895DB988DE691E00E94C70098
:1002E00085E38A95F1F787E00E94920085FF03C0BD
:1002F00087E260E204C084FF04C087E260E10E94FC
:100300008700DB9A08950E94E1008099FECFDB9878
:1003100085E38A95F1F787E00E94920086FF0AC084
:1003200081E66DE471E040E20E949D0087E260E4B6
:100330000E948700DB9A08950F931F93CF93DF935A
:10034000EC01DB9885E38A95F1F787E08FB9779B1D
:10035000FECF0FB100D000D080E091E0EDB7FEB746
:1003600092838183038314820E94360D0F900F9035
:100370000F900F9006FD02C010E006C081E6BE019E
:1003800040E20E949D0011E087E2602F0E948700FA
:10039000DB9A812FDF91CF911F910F9108952091CA
:1003A0002201309123012F5F3F4F3093230120938F
:1003B000220121503040C9010895EF92FF920F931E
:1003C000CF93DF93EC017901809122019091230179
:1003D00001969093230180932201019720E82883BE
:1003E00021E229839A838B837C836D835E834F8391
:1003F00040E050E0602F70E00AC0FE01E80FF11D00
:10040000D701A40FB51F8C9180834F5F5F4F842F5E
:10041000885F461757078CF3802F885FDF91CF9155
:100420000F91FF90EF900895EF92FF920F93CF936B
:10043000DF93EC0180E8888381E28983FA82EB8292
:100440007C836D835E834F8340E050E0602F70E0DB
:100450000AC0FE01E80FF11DD901A40FB51F8C9150
:1004600080834F5F5F4F842F885F461757078CF359
:10047000802F885FDF91CF910F91FF90EF900895CB
:10048000CF92DF92EF92FF920F93DF93CF93CDB78E
:10049000DEB7A0970FB6F894DEBF0FBECDBF7C01CC
:1004A00085E289831A821B827C836D8380E28E833E
:1004B00080E48F8348878DE8C82E81E0D82E409154
:1004C0008C0750918D07C60160E070E09E012F5FA0
:1004D0003F4F08E00E941402482F80E090E0B601F0
:1004E00050E00E94790CA0960FB6F894DEBF0FBEC4
:1004F000CDBFCF91DF910F91FF90EF90DF90CF9024
:100500000895FB01928180E0238130E060918C07A7
:1005100070918D07822B932B40E00E94400208953A
:100520009C01FB018085843219F4C9010E9481027B
:1005300008951BBA8FEF8ABB9FE095BB84BB9FE9F0
:1005400092BB81BB809362008093610080936500C1
:1005500080936400109A149883B1806F83B90895D2
:10056000979888EE93E020E931E0F9013197F1F7AF
:100570000197D9F7979A089584B7877F84BF2FE0B2
:1005800088E190E00FB6F894A89581BD0FBE21BD1B
:10059000089586E090E00E94D206892B49F50E94DA
:1005A0000D06882399F40E94EB0B833011F40E940E
:1005B000470686E090E00E94EF0686E090E040E18A
:1005C00057E260E070E00E94BD0608950E94EB0BC8
:1005D000833011F40E94810686E090E00E94EF06CD
:1005E00086E090E040E25EE460E070E00E94BD06DC
:1005F00008950F931F93CF93DF9381E090E00E94C3
:10060000D206892B99F40E946A0C809124018F5F95
:100610008093240181E090E00E94EF0681E090E069
:1006200040E157E260E070E00E94BD060E94EB0BE3
:10063000823030F480912401863020F00E94B00294
:10064000109224018DEC91E060E470E00E94F50AC4
:10065000EC019093260180932501181619060CF0E1
:100660003FC08091CD01882319F08031C9F509C0C0
:10067000CE018150682F8EEC91E070E00E94C70C93
:100680002FC01091D0010091D1019091D60180E04E
:100690002091D70130E0822B932B20918C07309151
:1006A0008D0782179307E1F487E090E00E94EF0640
:1006B00087E090E040ED57E060E070E00E94BD060A
:1006C000912F80E0202F30E0BE016550462F50E092
:1006D00045505040822B932B62ED71E00E94DA0866
:1006E00087E090E00E94D206892B71F40E944706B1
:1006F00087E090E00E94EF0687E090E040ED57E051
:1007000060E070E00E94BD06DF91CF911F910F91D4
:10071000089582E090E00E94D206892B89F4A89582
:1007200081E061E00E94160582E090E00E94EF0601
:1007300082E090E044E650E060E070E00E94BD0698
:1007400085E090E00E94D206892B09F043C00E9408
:10075000270D882379F580912701882329F481E0EA
:100760008093270184E306C0813069F482E080939E
:10077000270187E680931D0180931E0180931F014E
:100780008093200117C0823029F483E080932701F1
:100790008AE9F0CF833029F484E0809327018DEC3F
:1007A000E9CF843021F4109227018EEFE3CF10922D
:1007B000270104C081E061E00E94600585E090E0CF
:1007C0000E94EF0685E090E048EB5BE060E070E0BF
:1007D0000E94BD06089584B7877F84BF2FE088E11B
:1007E00090E00FB6F894A89581BD0FBE21BD0E9480
:1007F00099020E94200D0E9467070E94FF060E9436
:1008000067000E943F018FEF6FEF0E94600515BAED
:100810001FBC86E08EBD8FEF8DBD8CBD87B7846019
:1008200087BF85E10E94080C88EE93E020E931E063
:10083000F9013197F1F70197D9F70E94460C80E151
:1008400097E220E931E0F9013197F1F70197D9F703
:1008500082E090E044EF51E060E070E00E94BD066D
:1008600085E090E048EB5BE060E070E00E94BD0650
:1008700081E090E048EB5BE060E070E00E94BD0644
:1008800084E090E044E650E060E070E00E94BD0645
:1008900086E090E040ED57E060E070E00E94BD0629
:1008A00010928E0782E098E060E278E00E94F20801
:1008B00082EB98E060ED78E00E94FD0880E090E037
:1008C0000E9406010E9489030E94F9020E94C90247
:1008D000F9CF20912801309129012F5F3F4F3093AC
:1008E00029012093280121503040C9010895EF9239
:1008F000FF920F93CF93DF93EC0179018091280150
:1009000090912901019690932901809328010197E4
:1009100020E8288321E129839A838B837C836D835C
:100920005E834F8340E050E0602F70E00AC0FE011C
:10093000E80FF11DD701A40FB51F8C9180834F5F85
:100940005F4F842F885F461757078CF3802F885F8F
:10095000DF91CF910F91FF90EF900895EF92FF926A
:100960000F93CF93DF93EC0180E8888381E1898343
:10097000FA82EB827C836D835E834F8340E050E09C
:10098000602F70E00AC0FE01E80FF11DD901A40F2D
:10099000B51F8C9180834F5F5F4F842F885F461710
:1009A00057078CF3802F885FDF91CF910F91FF90D5
:1009B000EF900895EDE1F1E0E80FF11D80810895D9
:1009C000EF92FF920F93DF93CF93CDB7DEB72A97C5
:1009D0000FB6F894DEBF0FBECDBF90E4998320918F
:1009E0008C0790918D079A832B838C838DE0E82E62
:1009F00082E0F82EC70160E070E040E050E09E0128
:100A00002F5F3F4F04E00E947704682FC70170E01A
:100A10000E9484092A960FB6F894DEBF0FBECDBFA0
:100A2000CF91DF910F91FF90EF900895EF92FF9299
:100A30000F93DF93CF93CDB7DEB72F970FB6F89410
:100A4000DEBF0FBECDBF82E3898390918C0780917A
:100A50008D078A839B831C8280911D018D8381E099
:100A60008E8380911E018F8382E0888780911F0191
:100A7000898783E08A87809120018B870E946700A5
:100A80008C879DE0E92E92E0F92EC70160E070E0CE
:100A900040E050E09E012F5F3F4F0CE00E94770442
:100AA000682FC7010E94BC0B2F960FB6F894DEBFCB
:100AB0000FBECDBFCF91DF910F91FF90EF900895C2
:100AC000EF92FF920F931F93DF93CF93CDB7DEB7D3
:100AD0002F970FB6F894DEBF0FBECDBF82E3898398
:100AE00090918C0780918D078A839B831C828091D3
:100AF0001D018D8381E08E8380911E018F8382E0B2
:100B0000888780911F01898783E08A8780912001EF
:100B10008B870E9467008C872DE0E22E22E0F22E68
:100B2000C70160E070E040E050E09E012F5F3F4F62
:100B30000CE00E947704182FC701612F70E00E941B
:100B40008409C701612F0E94BC0B2F960FB6F89441
:100B5000DEBF0FBECDBFCF91DF911F910F91FF90F0
:100B6000EF900895FC0183856485843038F4E82F84
:100B7000F0E0E35EFE4F60830E9460050895FB0194
:100B80008085823321F4CB01BA010E94B205089519
:100B9000FB018085823019F08231B9F408C082856A
:100BA000813011F410922A0110922B010895918541
:100BB00080E0228530E0822B932B892B21F481E089
:100BC00080932A01089510922A010895FB018285DD
:100BD000813011F410922A0110922B010895FB012B
:100BE000918580E0228530E0822B932B892B21F4A4
:100BF00081E080932A01089510922A01089520919E
:100C00002C0130912D012F5F3F4F30932D01209308
:100C10002C0121503040C901089580912A01089586
:100C2000EF92FF920F93CF93DF93EC0179018091C4
:100C30002C0190912D01019690932D0180932C0110
:100C4000019720E8288321E029839A838B837C8382
:100C50006D835E834F8340E050E0602F70E00AC0F8
:100C6000FE01E80FF11DD701A40FB51F8C91808301
:100C70004F5F5F4F842F885F461757078CF3802F95
:100C8000885FDF91CF910F91FF90EF900895EF92E1
:100C9000FF920F93DF93CF93CDB7DEB72A970FB6AE
:100CA000F894DEBF0FBECDBF81E1898380E28A83E5
:100CB00080E48B838EE18C838D8380E5E82E82E057
:100CC000F82E40918C0750918D07C70160E070E0CD
:100CD0009E012F5F3F4F05E00E941006482F80E0E5
:100CE00090E0B70150E00E94790C2A960FB6F89474
:100CF000DEBF0FBECDBFCF91DF910F91FF90EF9080
:100D000008950F93DF93CF93CDB7DEB72A970FB631
:100D1000F894DEBF0FBECDBF80912B018F5F809313
:100D20002B0181E089831A821B8240918C075091AC
:100D30008D0780E592E060E070E09E012F5F3F4FFD
:100D400003E00E941006482F80912B01843020F090
:100D500010922A0110922B0180E090E060E572E091
:100D600050E00E94790C2A960FB6F894DEBF0FBEB1
:100D7000CDBFCF91DF910F9108958A30910578F41E
:100D8000FC01EE0FFF1FEE0FFF1FE80FF91FE656E5
:100D9000FD4F418352836383748381E0808380E0CD
:100DA00090E008958A309105B0F4FC01EE0FFF1F2A
:100DB000EE0FFF1FE80FF91FE656FD4F80818823D5
:100DC00051F020E030E081819281A381B4810097CD
:100DD000A105B10511F021E030E0C90108958A3084
:100DE000910550F4FC01EE0FFF1FEE0FFF1FE80FFF
:100DF000F91FE656FD4F108280E090E00895F894C8
:100E0000EAE9F2E01082118212821382148235968E
:100E100082E0EC3CF807B1F710928900109288004C
:100E200080E480938B008CE080938A0010928C0089
:100E3000109287008EE38093860080917D00806110
:100E400080937D00789408951F920F920FB60F92B1
:100E50000BB60F9211248F939F93AF93BF93EF9391
:100E6000FF938091960290919702A0919802B09181
:100E700099020196A11DB11D80939602909397024D
:100E8000A0939802B0939902EBE9F2E080819181FE
:100E9000A281B3810097A105B10539F00197A1099D
:100EA000B10980839183A283B383359682E0ED3CC0
:100EB000F80761F7FF91EF91BF91AF919F918F91EB
:100EC0000F900BBE0F900FBE0F901F90189582E0F1
:100ED0008BB988ED8AB996E09093950010929000B6
:100EE00080E189B910929B0088E080939A009093EA
:100EF0009D001092980087E68093990008951F92B4
:100F00000F920FB60F920BB60F9211242F938F935F
:100F10009F93EF93FF935F9BFECF2CB180912F01A6
:100F200090E0FC01E453FC4F2083019680932F0155
:100F3000809130018F5F80933001FF91EF919F91FD
:100F40008F912F910F900BBE0F900FBE0F901F909F
:100F500018951F920F920FB60F920BB60F92112495
:100F60002F933F938F939F93EF93FF933091330190
:100F7000332371F08091310190E0FC01E453FB4F89
:100F800020812CB901968093310131503093330187
:100F90005598FF91EF919F918F913F912F910F90D5
:100FA0000BBE0F900FBE0F901F9018951F920F92BF
:100FB0000FB60F920BB60F9211242F933F938F937E
:100FC0009F93EF93FF9330913301332371F080911E
:100FD000310190E0FC01E453FB4F20812CB90196D4
:100FE00080933101315030933301FF91EF919F9104
:100FF0008F913F912F910F900BBE0F900FBE0F90CE
:101000001F901895DC01F89480913001882399F0A5
:101010008150809330017894E0912E01F0E0E45308
:10102000FC4F80818C9380912E018F5F80932E01E5
:1010300021E030E003C0789420E030E0C901089559
:101040005D9BFECF8CB981E090E008951F920F92D6
:101050000FB60F920BB60F9211242F938F939F937D
:10106000EF93FF9380919B0087FFFCCF20919C0022
:101070008091350190E0FC01E453FA4F2083019602
:1010800080933501809136018F5F80933601FF9107
:10109000EF919F918F912F910F900BBE0F900FBEEC
:1010A0000F901F9018951F920F920FB60F920BB6CC
:1010B0000F9211242F933F938F939F93EF93FF935E
:1010C00030913901332379F08091370190E0FC01B0
:1010D000E453FD4F208120939C00019680933701BB
:1010E00031503093390180919A008F7D80939A001E
:1010F000FF91EF919F918F913F912F910F900BBE98
:101100000F900FBE0F901F9018951F920F920FB661
:101110000F920BB60F9211242F933F938F939F93AF
:10112000EF93FF9330913901332379F080913701A8
:1011300090E0FC01E453FD4F208120939C00019638
:1011400080933701315030933901FF91EF919F9196
:101150008F913F912F910F900BBE0F900FBE0F906C
:101160001F901895DC01F89480913601882399F03E
:101170008150809336017894E0913401F0E0E4539B
:10118000FA4F80818C93809134018F5F809334017A
:1011900021E030E003C0789420E030E0C9010895F8
:1011A000982F80919B0085FFFCCF90939C0081E05D
:1011B00090E008959C01FB0191818081803889F441
:1011C000913161F0913231F0913059F4C9010E94AE
:1011D000C8050895C9010E9490020895C9010E949E
:1011E000BF050895909349018093480170934B0186
:1011F00060934A0180E090E00895909343018093CA
:101200004201709347016093460180E090E00895A9
:10121000CF92DF92EF92FF920F931F93DF93CF93C2
:10122000CDB7DEB7C054D0400FB6F894DEBF0FBEC6
:10123000CDBFAC0180914A0190914B01892B19F4EB
:101240002FEF3FEF50C08AEF89836A8320E030E0C0
:1012500002E010E07E010894E11CF11C0CC0F701D3
:10126000E00FF11FDA01A20FB31F8C9180830F5F93
:101270001F4F2F5F3F4F261737078CF322E030E0D8
:1012800040E050E0DE01119608C0FD01E20FF31FBF
:101290008081480F511D2F5F3F4F20173107ACF35E
:1012A000FD01E00FF11F408378010894E11CF11C5F
:1012B000AE0DBF1D8FEA8C9300E010E06E01089424
:1012C000C11CD11CF601E00FF11F20914A013091A1
:1012D0004B018081F90109950F5F1F4FE016F10660
:1012E0008CF720E030E0C901C05CDF4F0FB6F89406
:1012F000DEBF0FBECDBFCF91DF911F910F91FF9049
:10130000EF90DF90CF900895CF92DF92EF92FF920F
:101310000F931F93DF93CF93CDB7DEB7C054D04068
:101320000FB6F894DEBF0FBECDBFAC018091460171
:1013300090914701892B19F42FEF3FEF50C08AEFAE
:1013400089836A8320E030E002E010E07E010894A7
:10135000E11CF11C0CC0F701E00FF11FDA01A20F34
:10136000B31F8C9180830F5F1F4F2F5F3F4F261756
:1013700037078CF322E030E040E050E0DE011196C8
:1013800008C0FD01E20FF31F8081480F511D2F5F40
:101390003F4F20173107ACF3FD01E00FF11F4083F1
:1013A00078010894E11CF11CAE0DBF1D8FEA8C93EF
:1013B00000E010E06E010894C11CD11CF601E00FA2
:1013C000F11F20914601309147018081F901099573
:1013D0000F5F1F4FE016F1068CF720E030E0C901E7
:1013E000C05CDF4F0FB6F894DEBF0FBECDBFCF910C
:1013F000DF911F910F91FF90EF90DF90CF900895B4
:101400000F931F93DF93CF930F92CDB7DEB78C016D
:10141000E0914201F0914301309719F42FEF3FEF33
:10142000A8C0CE0101960995181619060CF09FC0A8
:1014300080914401909145018230910509F449C0A1
:101440008330910534F40097B1F0019709F08BC017
:1014500027C08330910521F0049709F084C068C04B
:1014600060914001709141016F5F7F4F22E030E059
:1014700040E050E050C010923F0110923E0129819F
:101480002A3F09F074C081E090E090934501809379
:10149000440120934C0790933F0180933E0167C025
:1014A00080913E0190913F012981FC01E45BF84F5E
:1014B0002083019690933F0180933E0182E090E06B
:1014C0009093450180934401209340011092410183
:1014D0004EC020913E0130913F01F901E45BF84F8D
:1014E000898180832F5F3F4F30933F0120933E01DE
:1014F0008091400190914101019682179307BCF5BC
:1015000083E090E010C0F901E45BF84F8081480F60
:10151000511D2F5F3F4F62177307ACF78981841706
:1015200011F584E090E090934501809344011FC041
:1015300089818F3AC1F41092450110924401AEE4C2
:10154000B7E040E050E007C0F801E40FF51F8D91CF
:1015500080834F5F5F4F20914001309141014217DE
:10156000530794F306C0109245011092440120E005
:1015700030E0C9010F90CF91DF911F910F91089535
:101580000F931F93A0E0B0E00FEA1AEF24C0FB0115
:10159000E20FF31F20812F3FC1F421812F3F29F457
:1015A000FC01EA0FF11D20830DC0213029F4FC015C
:1015B000EA0FF11D108306C0223029F4FC01EA0F66
:1015C000F11D0083AF5FBF5F05C0FC01EA0FF11D95
:1015D0002083AF5FBF5F2B2F30E024173507BCF2AD
:1015E0008A2F90E01F910F910895EF92FF920F9331
:1015F0001F93DF93CF93CDB7DEB7C154D0400FB662
:10160000F894DEBF0FBECDBFF82EE92E8B01E0911E
:101610004801F0914901309719F42FEF3FEF5EC078
:10162000CE0101960995181619060CF055C0809147
:101630003A0190913B018017910724F010923B01F1
:1016400010923A0189818A3F49F480930C0781E026
:1016500090E090933B0180933A013EC040913A0163
:1016600050913B018F3A71F541505040CE010296A6
:101670006DE077E00E94C00A282F22508A81281747
:1016800059F581E090E0422F50E001C001968417A7
:101690009507E4F38F2D9E2D9C01D90120E030E0C9
:1016A000BE016E5F7F4F05C0FB01E20FF31F80811B
:1016B0008D93822F2F5F3F4F42175307ACF7282F90
:1016C00030E00CC0FA01E45FF84F80834F5F5F4F5A
:1016D00050933B0140933A0120E030E0C901CF5BD9
:1016E000DF4F0FB6F894DEBF0FBECDBFCF91DF91B5
:1016F0001F910F91FF90EF9008950F931F939C01FE
:1017000080E0A0E0BFEF02E011E02DC0E60FF71F80
:1017100090819A3F51F4F901E80FF11DB0838F5F7A
:10172000F901E80FF11D10830BC09F3A59F4F9013C
:10173000E80FF11DB0838F5FF901E80FF11D008301
:101740008F5F10C0E82FF0E08F5F9F3F41F4E20F02
:10175000F31F9083F901E80FF11D9083F1CFE20FA1
:10176000F31F9083AF5FEA2FF0E0E417F50774F200
:1017700090E01F910F910895CF93DF932AEF20936C
:101780006D0160936E01EC01EFE6F1E0DF0170E0C6
:101790006E5F7F4F9B0123593E4F02C089918D930D
:1017A000A217B307D9F790E002C08191980FEA170A
:1017B000FB07D9F7FB01E359FE4F90838FEA818342
:1017C0000E946B0180EA9FE00197F1F780E090E0D2
:1017D000DF91CF91089580918E07089521E12093A4
:1017E000CC069093CD068093CE0690918C07809185
:1017F0008D078093CF069093D0068CEC96E065E041
:1018000070E00E94080980EE9EE20197F1F70895CA
:101810001092CC0690E49093CD0695E09093CE067E
:101820008093CF068CEC96E064E070E00E9408099B
:1018300080EE9EE20197F1F708951092CC0690E4B5
:101840009093CD0692E09093CE068093CF068CECD9
:1018500096E064E070E00E94080980EE9EE2019745
:10186000F1F708951092CC0620E32093CD069093D3
:10187000CE068093CF068CEC96E064E070E00E9488
:10188000080980EE9EE20197F1F708951092CC06C8
:1018900081E08093CD068093CE068CEC96E063E0E9
:1018A00070E00E94080980EE9EE20197F1F708952A
:1018B0001092CC0680E18093CD061092CE068CEC7F
:1018C00096E063E070E00E94080980EE9EE20197D6
:1018D000F1F708951092CC061092CD068CEC96E0AC
:1018E00062E070E00E94080980EE9EE20197F1F745
:1018F0000895EF92FF920F931F93DF93CF93CDB78D
:10190000DEB7C058D0400FB6F894DEBF0FBECDBFD3
:101910007B018A0120E129839A838B8390918C0734
:1019200080918D078C839D8345E050E020E030E07E
:10193000BE016F5F7F4F0CC0FB01E40FF51FD701A5
:10194000A20FB31F8C9180834F5F5F4F2F5F3F4F7C
:10195000201731078CF38E010F5B1F4FC8010E94C7
:101960007D0BBC01C8010E94080980EE9EE2019730
:10197000F1F7C058DF4F0FB6F894DEBF0FBECDBFF2
:10198000CF91DF911F910F91FF90EF900895FF92FB
:101990000F931F93FC01F08081E1F81689F181EA31
:1019A000F81609F447C081E0F81609F045C09385A0
:1019B00080E0248530E0822B932B90938D078093D9
:1019C0008C07958580E0068510E0082B192B109375
:1019D000900700938F070E94270D90E091600817F1
:1019E000190759F010928E070E94270D90E0916020
:1019F0000E94320C0E94460C1FC0F0928E0713C04A
:101A00000185009391070E94270D10E090E08F70F0
:101A100090700B960817190749F00E94270D8F70D8
:101A2000855F0E941D0C0E94580C06C083E08093C5
:101A30008E0702C00E946A0C1F910F91FF900895BB
:101A400087B38F7087BB88B3806F88BB089586B3D8
:101A50008095881F8827881F880F880F880FB69B5E
:101A60008460B59B8260B49B81600895DF93CF93BF
:101A7000CDB7DEB7FE0135966191719180919407E3
:101A800090919507AF010E94480DCF91DF91089585
:101A90002F923F924F925F926F927F928F929F927E
:101AA000AF92BF92CF92DF92EF92FF920F931F936C
:101AB000DF93CF93CDB7DEB72B970FB6F894DEBF89
:101AC0000FBECDBF3C012B015A01FC0117821682CB
:101AD000838181FD03C06FEF7FEFC6C19AE0892E3D
:101AE0001E010894211C311CF3012381F20123FD06
:101AF000859123FF81912F01882309F4B2C185329A
:101B000039F423FD859123FF81912F01853229F43A
:101B100090E0B3010E94640FE7CF982FFF24EE24DA
:101B20009924FFE1FF15D0F09B3269F09C3228F434
:101B3000903259F0933291F40EC09D3249F09033B7
:101B400069F441E024C052E0F52A84E0F82A28C074
:101B500098E0F92A25C0E0E1FE2A22C0F7FC29C05E
:101B6000892F80538A3070F4F6FE05C0989C902C23
:101B70001124980E15C0E89CE02C1124E80EF0E228
:101B8000FF2A0EC09E3229F4F6FC6BC140E4F42A11
:101B900007C09C3619F450E8F52A02C0983649F47B
:101BA000F20123FD959123FF91912F01992309F0D3
:101BB000B8CF892F8554833018F08052833038F4A1
:101BC00044E050E0A40EB51E5FE359830FC0933686
:101BD00031F0933779F0933509F056C020C0F50104
:101BE0008081898342E050E0A40EB51E610101E0CE
:101BF00010E012C0F501C080D180F6FC03C06FEF89
:101C00007FEF02C0692D70E042E050E0A40EB51EE7
:101C1000C6010E94590F8C015FE7F52214C0F5013F
:101C2000C080D180F6FC03C06FEF7FEF02C0692D4A
:101C300070E042E050E0A40EB51EC6010E944E0FB7
:101C40008C0150E8F52AF3FE07C01AC080E290E04C
:101C5000B3010E94640FEA948E2D90E008171907D3
:101C6000A8F30EC0F601F7FC8591F7FE81916F0194
:101C700090E0B3010E94640FE110EA94015010401B
:101C80000115110579F7EAC0943611F0993669F516
:101C9000F7FE08C0F501208131814281538184E043
:101CA00090E00AC0F501808191819C01442737FDB5
:101CB0004095542F82E090E0A80EB91E9FE6F922CD
:101CC00057FF09C050954095309521953F4F4F4F94
:101CD0005F4FE0E8FE2ACA01B901A1012AE030E025
:101CE0000E94900FD82ED21840C0953729F41F2D8E
:101CF0001F7E2AE030E01DC01F2D197F9F3661F046
:101D0000903720F4983509F0ACC00FC0903739F007
:101D1000983709F0A6C004C028E030E00AC010617E
:101D200014FD146020E130E004C014FD166020E1D1
:101D300032E017FF08C0F5016081718182819381D3
:101D400044E050E008C0F50180819181BC0180E051
:101D500090E042E050E0A40EB51EA1010E94900F59
:101D6000D82ED2188FE7F82EF122F6FE0BC05EEFC8
:101D7000F522D91438F4F4FE07C0F2FC05C08FEE4A
:101D8000F82202C01D2D01C0192DF4FE0DC0FE0168
:101D9000ED0DF11D8081803319F499EEF92208C010
:101DA0001F5FF2FE05C003C08F2D867809F01F5F0C
:101DB0000F2DF3FC14C0F0FE0FC01E1510F09D2C6B
:101DC0000BC09D2C9E0C911A1E2D06C080E290E047
:101DD000B3010E94640F1F5F1E15C0F304C01E15DF
:101DE00010F4E11A01C0EE2404FF0FC080E390E07C
:101DF000B3010E94640F02FF1DC001FD03C088E70C
:101E000090E00EC088E590E00BC0802F867891F0BE
:101E100001FF02C08BE201C080E2F7FC8DE290E09E
:101E2000B3010E94640F06C080E390E0B3010E94FA
:101E3000640F9A94D914C0F3DA94F101ED0DF11DF9
:101E4000808190E0B3010E94640FDD20A9F706C0F5
:101E500080E290E0B3010E94640FEA94EE20C1F7A3
:101E600043CEF30166817781CB012B960FB6F894B0
:101E7000DEBF0FBECDBFCF91DF911F910F91FF90BD
:101E8000EF90DF90CF90BF90AF909F908F907F901A
:101E90006F905F904F903F902F900895FC010590B8
:101EA000615070400110D8F7809590958E0F9F1F5C
:101EB0000895FC016150704001900110D8F78095A1
:101EC00090958E0F9F1F08950F931F93CF93DF93CD
:101ED0008C01EB018B8181FF1BC082FF0DC02E8125
:101EE0003F818C819D812817390764F4E881F9814D
:101EF0000193F983E88306C0E885F985802F099569
:101F0000892B31F48E819F8101969F838E8302C03D
:101F10000FEF1FEFC801DF91CF911F910F9108952F
:101F2000FA01AA27283051F1203181F1E8946F930A
:101F30006E7F6E5F7F4F8F4F9F4FAF4FB1E03ED0B0
:101F4000B4E03CD0670F781F891F9A1FA11D680F4E
:101F5000791F8A1F911DA11D6A0F711D811D911D81
:101F6000A11D20D009F468943F912AE0269F1124F6
:101F70003019305D3193DEF6CF010895462F47705A
:101F8000405D4193B3E00FD0C9F7F6CF462F4F70B5
:101F9000405D4A3318F0495D31FD4052419302D013
:101FA000A9F7EACFB4E0A6959795879577956795B9
:101FB000BA95C9F700976105710508959B01AC01B9
:101FC0000A2E06945795479537952795BA95C9F7E0
:101FD000620F731F841F951FA01D0895F894FFCFF3
:101FE000535441545553BDD3CADCD7B4CCACA3BA77
:101FF00030782532780D0A00B2B2B3B401FFFFFF8A
:02200000FF00DF
:00000001FF
