:100000000C9445000C944F040C9462000C94620014
:100010000C9462000C9462000C9462000C946200D8
:100020000C9462000C9462000C9462000C946200C8
:100030000C9462000C9462000C9462000C946200B8
:100040000C949B070C9462000C941E040C946200A8
:100050000C9462000C9462000C9462000C94620098
:100060000C9462000C9462000A0D00253032582076
:100070000042554646203D200044415441203A204C
:100080003078253032580A0D000011241FBECFEF02
:10009000D8E0DEBFCDBF11E0A0E0B1E0EAEDF5E1D0
:1000A00002C005900D92AA30B107D9F712E0AAE07C
:1000B000B1E001C01D92A031B107E1F70E94100626
:1000C0000C94EB0A0C940000FC01A081B1818D918D
:1000D000B183A0830895DC01ED91FC9111972181FA
:1000E00030E0908180E0282B392B3296ED93FC9301
:1000F000C9010895BC01DC01ED91FC91238130E040
:1001000040E050E0808190E0A0E0B0E0B82FAA2766
:1001100099278827282B392B4A2B5B2B818190E04C
:10012000A0E0B0E0DC0199278827282B392B4A2B47
:100130005B2B828190E0A0E0B0E0BA2FA92F982F2E
:100140008827282B392B4A2B5B2B3496DB01ED9328
:10015000FC93B901CA010895DB01ED91FC9111975F
:10016000E80FF91F40838D919C91119701968D9313
:100170009C930895DC01FB0180819181FD01E80FD2
:10018000F91F50830196A80FB91F4C930196FB01EC
:10019000918380830895EF92FF920F931F938C01B8
:1001A0007B01FB0160817181FC01E60FF71F852F48
:1001B0009927AA27BB2780836F5F7F4FF801E60F3F
:1001C000F71FCA01AA27BB2780836F5F7F4FF80103
:1001D000E60FF71FBB27A52F942F832F80836F5F18
:1001E0007F4F060F171FF80120836F5F7F4FF701C6
:1001F000718360831F910F91FF90EF900895EF92AC
:10020000FF920F931F93CF93DF937C01DC010D903E
:100210000020E9F71197A81BB90B79F0EC01CA0F80
:10022000DB1FFE0182918F0190E00E94F0079E018A
:10023000E801892BB1F7F9011082C701DF91CF9155
:100240001F910F91FF90EF900895CF93DF93EC01F2
:1002500001C02196888190E00E94F007892BC9F7A0
:10026000CE01DF91CF9108950E9425010E94FF00E9
:100270000895359902C028E001C020E0349B246035
:10028000339B2260329B2160222311F48EE505C04E
:10029000822F90E08F96880F991F80931B01822FE9
:1002A00008958EBD0DB407FEFDCF8EB508955F98FD
:1002B0008EBD0DB407FEFDCF8EB56EBD0DB407FE2D
:1002C000FDCF9EB55F9A08955F988EBD0DB407FE71
:1002D000FDCF8EB51EBC0DB407FEFDCF8EB55F9A67
:1002E00008955F988EBD0DB407FEFDCF5EB58AE11F
:1002F0008A95F1F7FB0190E007C01EBC0DB407FE24
:10030000FDCF8EB581939F5F9417B8F35F9A852FC9
:1003100008955F988EBD0DB407FEFDCF5EB58AE1EE
:100320008A95F1F7FB0107C080818EBD0DB407FEF1
:10033000FDCF31968EB58E2F861B8417A8F35F9A5A
:10034000852F08950F931F93BC0181E080930001D6
:100350005E988AE18A95F1F787E08EBD0DB407FEBD
:10036000FDCF0EB506FD02C010E005C081E640E2FB
:100370000E94710111E087E2602F0E9457015E9A8E
:10038000812F1F910F9108950F931F938C015E98F9
:100390008AE261E071E045E00E94890180EAB801EB
:1003A00040E20E94890180E26EE00E9457015E9A5D
:1003B0008AE18A95F1F71F910F9108955E988AE27C
:1003C00061E071E045E00E94890181E360E20E9402
:1003D000570181E26FE30E94570182E26FE30E94BE
:1003E000570185E260911B010E94570186E267E098
:1003F0000E94570180E26FE00E9457015E9A8AE1F5
:100400008A95F1F70895EF92FF920F931F937C0165
:100410005E9801E011E080E3B80145E00E948901A7
:100420008AE2B80145E00E94890180EAB70140E212
:100430000E94890181E26FE30E94570182E26FE32B
:100440000E94570184E26AE00E94570185E26091B0
:100450001B010E94570186E267E00E94570181E379
:1004600060E20E94570180E26EE00E9457015E9AAE
:100470008AE18A95F1F71F910F91FF90EF9008950F
:1004800084B18C6284B9249885B1886385B98AB1B6
:10049000806C8AB952988BB1846C8BB980E58CBD25
:1004A0001DBC5F9A5E98089580E26EE00E9457013D
:1004B00081E26FE30E94570182E26FE30E945701DD
:1004C00085E260911B010E94570186E267E00E946D
:1004D000570108955E988CE191E00E9403028AE141
:1004E0008A95F1F787E00E94640185FF03C087E2E7
:1004F00060E204C084FF04C087E260E10E9457010B
:100500005E9A08950F931F93CF93DF9381E08093BA
:1005100000015E988AE18A95F1F787E00E94640104
:1005200086FFC0C081E66CE171E040E20E9471018B
:1005300087E260E40E94570100D000D0EDB7FEB71B
:10054000319689E790E0ADB7BEB712969C938E9333
:10055000119780912101828313820E94F8070F90E6
:100560000F9081E790E0EDB7FEB7928381830E9400
:10057000F807CCE1D1E00F900F900BE610E000D02F
:1005800000D0EDB7FEB73196ADB7BEB712961C934B
:100590000E9311978991828313820E94F8070F901E
:1005A0000F900F900F90B1E0C433DB0741F700D0FC
:1005B00088E690E0EDB7FEB7928381830E94F8074A
:1005C000FE0176970F900F908081803809F06AC005
:1005D00080911F01813109F065C090E08191980FF1
:1005E00081E0E233F807D1F78081891709F05AC01A
:1005F000109131010E943901181709F050C0809103
:100600002901882381F41091DE0180912A010E9442
:100610005803181711F01092000180912A010E94CE
:1006200058038093DE0180912B01813081F4109179
:10063000DF0180912C010E945803181711F01092CD
:10064000000180912C010E9458038093DF0180916A
:100650002D01823081F41091E00180912E010E94E1
:100660005803181711F01092000180912E010E947A
:1006700058038093E00180912F01833081F4109121
:10068000E101809130010E945803181711F0109277
:100690000001809130010E9458038093E10181E0C4
:1006A00080931A015E9ADF91CF911F910F91089567
:1006B00040E020E030E090E08217930711F4482FEB
:1006C00040952F5F3F4F2E3F3105B1F7842F08959E
:1006D000682F80910701861731F06093070188EC3D
:1006E00090E00E94030A80E00895809107018F3F07
:1006F00031F488EC90E00E94FB098093070180911F
:1007000007010895FC018385882389F4848520E00E
:1007100030E040E090E08217930711F4482F4095B5
:100720002F5F3F4F2E3F3105B1F74093DE018585A6
:10073000813089F4868520E030E040E090E0821747
:10074000930711F4482F40952F5F3F4F2E3F3105FF
:10075000B1F74093DF018785823089F4808920E0FA
:1007600030E040E090E08217930711F4482F409565
:100770002F5F3F4F2E3F3105B1F74093E001818954
:10078000833089F4828920E030E040E090E08217F5
:10079000930711F4482F40952F5F3F4F2E3F3105AF
:1007A000B1F74093E10181E080931A018BB190E4AD
:1007B00089278BB90E947503882319F080E00E9475
:1007C00068030895809106018F3F31F484E690E03C
:1007D0000E94FB09809306018091060108951F93F2
:1007E000FC0113851093060184E690E00E94FB094A
:1007F000811729F084E690E0612F0E94030A1F917F
:100800000895FC018085823319F0803441F404C0DE
:10081000CF010E9482030895CF010E94EF03089543
:100820001092C00088E98093C10086E08093C200E6
:100830001092C50083E38093C40008951F920F9225
:100840000FB60F9211242F938F939F93EF93FF93E3
:10085000F8948091C00087FFFCCF80939D01209188
:10086000C60020935C0180910E0190E0FC01E35AE8
:10087000FE4F208301968F73907080930E018091BC
:100880000F018F5F80930F017894FF91EF919F91FB
:100890008F912F910F900FBE0F901F9018951F9260
:1008A0000F920FB60F9211240F900FBE0F901F9052
:1008B0001895DC01F89480910F018823B1F08150E4
:1008C00080930F017894E0910D01F0E0E35AFE4F20
:1008D00080818C9380910D0190E001968F739070D0
:1008E00080930D0121E030E003C0789420E030E0F7
:1008F000C9010895982F8091C00085FFFCCF909387
:10090000C60081E090E00895FC01918180818038EB
:1009100029F4913119F4CF010E94010481E0089576
:10092000909315018093140170931901609318013D
:1009300080E090E008950F931F93DF93CF930F9281
:10094000CDB7DEB78C01E0911401F091150130971D
:1009500019F42FEF3FEFACC0CE01019609951816A0
:1009600019060CF0A3C02091100130911101203420
:10097000310524F010921701109216018091160192
:10098000909117018230910509F446C0833091059A
:1009900034F40097B1F0019709F084C027C0833088
:1009A000910521F0049709F07DC061C060911201AA
:1009B000709113016F5F7F4F22E030E040E050E024
:1009C00049C0109211011092100129812A3F09F0AB
:1009D0006DC081E090E09093170180931601209301
:1009E0009E01909311018093100160C08981F901EB
:1009F000E256FE4F80832F5F3F4F309311012093CB
:100A0000100122E030E0309317012093160180930B
:100A10001201109213014AC0F901E256FE4F89817A
:100A200080832F5F3F4F30931101209310018091FD
:100A3000120190911301019682179307BCF583E090
:100A400090E010C0F901E256FE4F8081480F511D21
:100A50002F5F3F4F62177307ACF78981841711F539
:100A600084E090E090931701809316011FC0898164
:100A70008F3AC1F41092170110921601A0EAB1E06A
:100A800040E050E007C0F801E40FF51F8D9180832E
:100A90004F5F5F4F209112013091130142175307AE
:100AA00094F306C0109217011092160120E030E076
:100AB000C9010F90CF91DF911F910F9108950F936E
:100AC0001F93A0E0B0E00FEA1AEF24C0FB01E20F91
:100AD000F31F20812F3FC1F421812F3F29F4FC0116
:100AE000EA0FF11D20830DC0213029F4FC01EA0F2B
:100AF000F11D108306C0223029F4FC01EA0FF11D1C
:100B00000083AF5FBF5F05C0FC01EA0FF11D2083CA
:100B1000AF5FBF5F2B2F30E024173507BCF28A2F61
:100B200090E01F910F9108950F931F939C0180E017
:100B3000A0E0BFEF02E011E02DC0E60FF71F9081AB
:100B40009A3F51F4F901E80FF11DB0838F5FF9016D
:100B5000E80FF11D10830BC09F3A59F4F901E80F1B
:100B6000F11DB0838F5FF901E80FF11D00838F5FE6
:100B700010C0E82FF0E08F5F9F3F41F4E20FF31FBA
:100B80009083F901E80FF11D9083F1CFE20FF31F7D
:100B90009083AF5FEA2FF0E0E417F50774F290E07E
:100BA0001F910F91089508958FE385B914B817B870
:100BB00088B1836088B953988BB188618BB93A98B2
:100BC00088B18C6388B982E085B984B98AB18066BE
:100BD0008AB985E085BD80EF86BD81EA809380007B
:100BE00083E080938100109285001092840010921F
:100BF000870010928600109289001092880010924F
:100C00008B0010928A001092B6001092B1001092E0
:100C1000B2001092B30015BE81E080936E0008957B
:100C2000AF92BF92CF92DF92EF92FF920F931F93FA
:100C3000DF93CF93CDB7DEB7C054D0400FB6F89452
:100C4000DEBF0FBECDBF2FE088E190E00FB6F89475
:100C5000A895809360000FBE20936000A895A8958A
:100C600080E197E228EC30E0F9013197F1F7019744
:100C7000D9F7A8950E94D4050E9487077894A89573
:100C80000E94100489E594E06AE774E00E949004F1
:100C90000E9440020E9439010E94DE011092E1018F
:100CA0001092E0011092DF011092DE0180E090E0EE
:100CB00044E650E060E070E00E94450781E090E08B
:100CC00042E350E060E070E00E94450782E090E07F
:100CD00048EE53E060E070E00E94450783E090E05A
:100CE00048EE53E060E070E00E94450785E090E048
:100CF00048EE53E060E070E00E9445074098409A5B
:100D000080E090E00E945A07892BC1F7409A8FEF4C
:100D100080938800EE24FF24DD245E010894A11C4A
:100D2000B11C90E2C92E4A990AC086E090E040E6E4
:100D30005AEE60E070E00E9445070E948202C50101
:100D400060E470E00E949B04182F882369F086E01D
:100D500090E040E65AEE60E070E00E944507C50171
:100D6000612F70E00E94840483E090E00E945A07A3
:100D7000892BD1F5A8958BB18C258BB94B9903C0E4
:100D800008E010E002C000E010E04C9902C00C5FE7
:100D90001F4F309902C00E5F1F4F319902C00F5F85
:100DA0001F4F86E090E00E945A07892B71F40E9441
:100DB000DE011092E1011092E0011092DF01109229
:100DC000DE0186E090E00E9477077801043011058B
:100DD00018F083E0E82EF12C83E090E044EF51E03E
:100DE00060E070E00E944507909188008701025200
:100DF0001E4FF8018081981709F495CF81E090E0AB
:100E00000E945A07892B09F08ECFF80180819091BA
:100E10008800282F30E0981788F480918800A90175
:100E2000481B5109CA016AE070E00E94C907653099
:100E300008F461E080918800860F18C080918800D6
:100E400090E0821B930B6AE070E00E94C907663055
:100E500010F491E001C093E054E05D1510F4DD243E
:100E600001C090E0D39480918800891B8093880012
:100E700081E090E00E94770781E090E041E050E05F
:100E800060E070E00E9445074ECF8830910578F40D
:100E9000FC01EE0FFF1FEE0FFF1FE80FF91FEE51D1
:100EA000FE4F418352836383748381E0808380E0BB
:100EB00090E0089588309105B0F4FC01EE0FFF1F1B
:100EC000EE0FFF1FE80FF91FEE51FE4F80818823C0
:100ED00051F020E030E081819281A381B4810097BC
:100EE000A105B10511F021E030E0C9010895883075
:100EF000910550F4FC01EE0FFF1FEE0FFF1FE80FEE
:100F0000F91FEE51FE4F108280E090E00895E2EE6E
:100F1000F1E010821182128213821482359682E0EF
:100F2000EA30F807B1F785E085BD88EF86BD81E03E
:100F300080936E0008951F920F920FB60F921124A6
:100F40008F939F93AF93BF93EF93FF93E3EEF1E003
:100F500080819181A281B3810097A105B10539F00B
:100F60000197A109B10980839183A283B383359648
:100F700082E0EB30F80761F788EF86BDFF91EF91D3
:100F8000BF91AF919F918F910F900FBE0F901F90C7
:100F9000189597FB092E07260AD077FD04D00CD0B0
:100FA00006D000201AF4709561957F4F0895F6F7EA
:100FB000909581959F4F0895AA1BBB1B51E107C0D7
:100FC000AA1FBB1FA617B70710F0A61BB70B881FD9
:100FD000991F5A95A9F780959095BC01CD01089568
:100FE00091111FC2803219F089508550D0F70895B1
:100FF000A0E0B0E0EEEFF7E00C94C40AFE013596F5
:1010000061917191A0910C02B0910D0213968C9197
:101010001397886013968C9380910C0290910D0227
:10102000AF010E941E08E0910C02F0910D02238195
:10103000277F23832096E2E00C94E00AABE0B0E047
:10104000E4E2F8E00C94B40A3C012B015A01FC01E3
:1010500017821682838181FD03C06FEF7FEFC6C1C7
:101060009AE0892E1E010894211C311CF301238172
:10107000F20123FD859123FF81912F01882309F43B
:10108000B2C1853239F423FD859123FF81912F016F
:10109000853229F490E0B3010E942A0AE7CF982F05
:1010A000FF24EE249924FFE1FF15D0F09B3269F074
:1010B0009C3228F4903259F0933291F40EC09D3254
:1010C00049F0903369F441E024C052E0F52A84E00D
:1010D000F82A28C098E0F92A25C0E0E1FE2A22C0BB
:1010E000F7FC29C0892F80538A3070F4F6FE05C0C2
:1010F000989C902C1124980E15C0E89CE02C11248B
:10110000E80EF0E2FF2A0EC09E3229F4F6FC6BC115
:1011100040E4F42A07C09C3619F450E8F52A02C0CE
:10112000983649F4F20123FD959123FF91912F0107
:10113000992309F0B8CF892F8554833018F0805255
:10114000833038F444E050E0A40EB51E5FE35983C9
:101150000FC0933631F0933779F0933509F056C0CC
:1011600020C0F5018081898342E050E0A40EB51EC5
:10117000610101E010E012C0F501C080D180F6FCF1
:1011800003C06FEF7FEF02C0692D70E042E050E0D6
:10119000A40EB51EC6010E941F0A8C015FE7F5224E
:1011A00014C0F501C080D180F6FC03C06FEF7FEF63
:1011B00002C0692D70E042E050E0A40EB51EC601E9
:1011C0000E94140A8C0150E8F52AF3FE07C01AC0E9
:1011D00080E290E0B3010E942A0AEA948E2D90E00A
:1011E00008171907A8F30EC0F601F7FC8591F7FE62
:1011F00081916F0190E0B3010E942A0AE110EA9404
:10120000015010400115110579F7EAC0943611F02C
:10121000993669F5F7FE08C0F501208131814281D8
:10122000538184E090E00AC0F501808191819C01A6
:10123000442737FD4095542F82E090E0A80EB91E58
:101240009FE6F92257FF09C05095409530952195AA
:101250003F4F4F4F5F4FE0E8FE2ACA01B901A1019D
:101260002AE030E00E94560AD82ED21840C09537A6
:1012700029F41F2D1F7E2AE030E01DC01F2D197F8D
:101280009F3661F0903720F4983509F0ACC00FC05C
:10129000903739F0983709F0A6C004C028E030E054
:1012A0000AC0106114FD146020E130E004C014FD98
:1012B000166020E132E017FF08C0F50160817181FE
:1012C0008281938144E050E008C0F50180819181E2
:1012D000BC0180E090E042E050E0A40EB51EA10108
:1012E0000E94560AD82ED2188FE7F82EF122F6FE69
:1012F0000BC05EEFF522D91438F4F4FE07C0F2FCFF
:1013000005C08FEEF82202C01D2D01C0192DF4FE7C
:101310000DC0FE01ED0DF11D8081803319F499EEB1
:10132000F92208C01F5FF2FE05C003C08F2D86782A
:1013300009F01F5F0F2DF3FC14C0F0FE0FC01E1547
:1013400010F09D2C0BC09D2C9E0C911A1E2D06C0DA
:1013500080E290E0B3010E942A0A1F5F1E15C0F3CD
:1013600004C01E1510F4E11A01C0EE2404FF0FC0E2
:1013700080E390E0B3010E942A0A02FF1DC001FD34
:1013800003C088E790E00EC088E590E00BC0802F96
:10139000867891F001FF02C08BE201C080E2F7FC89
:1013A0008DE290E0B3010E942A0A06C080E390E03B
:1013B000B3010E942A0A9A94D914C0F3DA94F10175
:1013C000ED0DF11D808190E0B3010E942A0ADD201D
:1013D000A9F706C080E290E0B3010E942A0AEA94CD
:1013E000EE20C1F743CEF30166817781CB012B96C6
:1013F000E2E10C94D00AF999FECF92BD81BDF89A32
:10140000992780B50895262FF999FECF1FBA92BD6E
:1014100081BD20BD0FB6F894FA9AF99A0FBE0196D5
:101420000895992788270895FC0105906150704020
:101430000110D8F7809590958E0F9F1F0895FC019D
:101440006150704001900110D8F7809590958E0FF3
:101450009F1F08950F931F93CF93DF938C01EB0190
:101460008B8181FF1BC082FF0DC02E813F818C814B
:101470009D812817390764F4E881F9810193F98384
:10148000E88306C0E885F985802F0995892B31F41A
:101490008E819F8101969F838E8302C00FEF1FEF85
:1014A000C801DF91CF911F910F910895FA01AA27EA
:1014B000283051F1203181F1E8946F936E7F6E5F97
:1014C0007F4F8F4F9F4FAF4FB1E03ED0B4E03CD045
:1014D000670F781F891F9A1FA11D680F791F8A1F28
:1014E000911DA11D6A0F711D811D911DA11D20D08F
:1014F00009F468943F912AE0269F11243019305D49
:101500003193DEF6CF010895462F4770405D419339
:10151000B3E00FD0C9F7F6CF462F4F70405D4A3386
:1015200018F0495D31FD4052419302D0A9F7EACF4E
:10153000B4E0A6959795879577956795BA95C9F77D
:1015400000976105710508959B01AC010A2E069470
:101550005795479537952795BA95C9F7620F731F29
:10156000841F951FA01D08952F923F924F925F9266
:101570006F927F928F929F92AF92BF92CF92DF92A3
:10158000EF92FF920F931F93CF93DF93CDB7DEB708
:10159000CA1BDB0B0FB6F894DEBF0FBECDBF09949C
:1015A0002A88398848885F846E847D848C849B84F3
:1015B000AA84B984C884DF80EE80FD800C811B8101
:1015C000AA81B981CE0FD11D0FB6F894DEBF0FBE30
:0A15D000CDBFED010895F894FFCFA0
:0A15DA0001B2B2B3B401FFFFDD005F
:00000001FF
